{
  "_format": "hh-sol-artifact-1",
  "contractName": "SupplyMateNFT",
  "sourceName": "contracts/SupplyMate.sol",
  "abi": [
    {
      "inputs": [
        {
          "internalType": "address",
          "name": "initialOwner",
          "type": "address"
        }
      ],
      "stateMutability": "nonpayable",
      "type": "constructor"
    },
    {
      "inputs": [
        {
          "internalType": "address",
          "name": "sender",
          "type": "address"
        },
        {
          "internalType": "uint256",
          "name": "tokenId",
          "type": "uint256"
        },
        {
          "internalType": "address",
          "name": "owner",
          "type": "address"
        }
      ],
      "name": "ERC721IncorrectOwner",
      "type": "error"
    },
    {
      "inputs": [
        {
          "internalType": "address",
          "name": "operator",
          "type": "address"
        },
        {
          "internalType": "uint256",
          "name": "tokenId",
          "type": "uint256"
        }
      ],
      "name": "ERC721InsufficientApproval",
      "type": "error"
    },
    {
      "inputs": [
        {
          "internalType": "address",
          "name": "approver",
          "type": "address"
        }
      ],
      "name": "ERC721InvalidApprover",
      "type": "error"
    },
    {
      "inputs": [
        {
          "internalType": "address",
          "name": "operator",
          "type": "address"
        }
      ],
      "name": "ERC721InvalidOperator",
      "type": "error"
    },
    {
      "inputs": [
        {
          "internalType": "address",
          "name": "owner",
          "type": "address"
        }
      ],
      "name": "ERC721InvalidOwner",
      "type": "error"
    },
    {
      "inputs": [
        {
          "internalType": "address",
          "name": "receiver",
          "type": "address"
        }
      ],
      "name": "ERC721InvalidReceiver",
      "type": "error"
    },
    {
      "inputs": [
        {
          "internalType": "address",
          "name": "sender",
          "type": "address"
        }
      ],
      "name": "ERC721InvalidSender",
      "type": "error"
    },
    {
      "inputs": [
        {
          "internalType": "uint256",
          "name": "tokenId",
          "type": "uint256"
        }
      ],
      "name": "ERC721NonexistentToken",
      "type": "error"
    },
    {
      "inputs": [
        {
          "internalType": "address",
          "name": "owner",
          "type": "address"
        }
      ],
      "name": "OwnableInvalidOwner",
      "type": "error"
    },
    {
      "inputs": [
        {
          "internalType": "address",
          "name": "account",
          "type": "address"
        }
      ],
      "name": "OwnableUnauthorizedAccount",
      "type": "error"
    },
    {
      "anonymous": false,
      "inputs": [
        {
          "indexed": true,
          "internalType": "address",
          "name": "owner",
          "type": "address"
        },
        {
          "indexed": true,
          "internalType": "address",
          "name": "approved",
          "type": "address"
        },
        {
          "indexed": true,
          "internalType": "uint256",
          "name": "tokenId",
          "type": "uint256"
        }
      ],
      "name": "Approval",
      "type": "event"
    },
    {
      "anonymous": false,
      "inputs": [
        {
          "indexed": true,
          "internalType": "address",
          "name": "owner",
          "type": "address"
        },
        {
          "indexed": true,
          "internalType": "address",
          "name": "operator",
          "type": "address"
        },
        {
          "indexed": false,
          "internalType": "bool",
          "name": "approved",
          "type": "bool"
        }
      ],
      "name": "ApprovalForAll",
      "type": "event"
    },
    {
      "anonymous": false,
      "inputs": [
        {
          "indexed": true,
          "internalType": "address",
          "name": "previousOwner",
          "type": "address"
        },
        {
          "indexed": true,
          "internalType": "address",
          "name": "newOwner",
          "type": "address"
        }
      ],
      "name": "OwnershipTransferred",
      "type": "event"
    },
    {
      "anonymous": false,
      "inputs": [
        {
          "indexed": true,
          "internalType": "address",
          "name": "from",
          "type": "address"
        },
        {
          "indexed": true,
          "internalType": "address",
          "name": "to",
          "type": "address"
        },
        {
          "indexed": true,
          "internalType": "uint256",
          "name": "tokenId",
          "type": "uint256"
        }
      ],
      "name": "Transfer",
      "type": "event"
    },
    {
      "inputs": [
        {
          "internalType": "address",
          "name": "to",
          "type": "address"
        },
        {
          "internalType": "uint256",
          "name": "tokenId",
          "type": "uint256"
        }
      ],
      "name": "approve",
      "outputs": [],
      "stateMutability": "nonpayable",
      "type": "function"
    },
    {
      "inputs": [
        {
          "internalType": "address",
          "name": "owner",
          "type": "address"
        }
      ],
      "name": "balanceOf",
      "outputs": [
        {
          "internalType": "uint256",
          "name": "",
          "type": "uint256"
        }
      ],
      "stateMutability": "view",
      "type": "function"
    },
    {
      "inputs": [
        {
          "internalType": "uint256",
          "name": "tokenId",
          "type": "uint256"
        }
      ],
      "name": "getApproved",
      "outputs": [
        {
          "internalType": "address",
          "name": "",
          "type": "address"
        }
      ],
      "stateMutability": "view",
      "type": "function"
    },
    {
      "inputs": [
        {
          "internalType": "address",
          "name": "owner",
          "type": "address"
        },
        {
          "internalType": "address",
          "name": "operator",
          "type": "address"
        }
      ],
      "name": "isApprovedForAll",
      "outputs": [
        {
          "internalType": "bool",
          "name": "",
          "type": "bool"
        }
      ],
      "stateMutability": "view",
      "type": "function"
    },
    {
      "inputs": [
        {
          "internalType": "string",
          "name": "_title",
          "type": "string"
        },
        {
          "internalType": "string",
          "name": "_description",
          "type": "string"
        },
        {
          "internalType": "uint256",
          "name": "_quantity",
          "type": "uint256"
        },
        {
          "internalType": "string",
          "name": "_location",
          "type": "string"
        },
        {
          "internalType": "address",
          "name": "_nextOwner",
          "type": "address"
        }
      ],
      "name": "mintNFT",
      "outputs": [
        {
          "internalType": "uint256",
          "name": "",
          "type": "uint256"
        }
      ],
      "stateMutability": "nonpayable",
      "type": "function"
    },
    {
      "inputs": [],
      "name": "name",
      "outputs": [
        {
          "internalType": "string",
          "name": "",
          "type": "string"
        }
      ],
      "stateMutability": "view",
      "type": "function"
    },
    {
      "inputs": [],
      "name": "owner",
      "outputs": [
        {
          "internalType": "address",
          "name": "",
          "type": "address"
        }
      ],
      "stateMutability": "view",
      "type": "function"
    },
    {
      "inputs": [
        {
          "internalType": "uint256",
          "name": "tokenId",
          "type": "uint256"
        }
      ],
      "name": "ownerOf",
      "outputs": [
        {
          "internalType": "address",
          "name": "",
          "type": "address"
        }
      ],
      "stateMutability": "view",
      "type": "function"
    },
    {
      "inputs": [],
      "name": "renounceOwnership",
      "outputs": [],
      "stateMutability": "nonpayable",
      "type": "function"
    },
    {
      "inputs": [
        {
          "internalType": "address",
          "name": "from",
          "type": "address"
        },
        {
          "internalType": "address",
          "name": "to",
          "type": "address"
        },
        {
          "internalType": "uint256",
          "name": "tokenId",
          "type": "uint256"
        }
      ],
      "name": "safeTransferFrom",
      "outputs": [],
      "stateMutability": "nonpayable",
      "type": "function"
    },
    {
      "inputs": [
        {
          "internalType": "address",
          "name": "from",
          "type": "address"
        },
        {
          "internalType": "address",
          "name": "to",
          "type": "address"
        },
        {
          "internalType": "uint256",
          "name": "tokenId",
          "type": "uint256"
        },
        {
          "internalType": "bytes",
          "name": "data",
          "type": "bytes"
        }
      ],
      "name": "safeTransferFrom",
      "outputs": [],
      "stateMutability": "nonpayable",
      "type": "function"
    },
    {
      "inputs": [
        {
          "internalType": "address",
          "name": "operator",
          "type": "address"
        },
        {
          "internalType": "bool",
          "name": "approved",
          "type": "bool"
        }
      ],
      "name": "setApprovalForAll",
      "outputs": [],
      "stateMutability": "nonpayable",
      "type": "function"
    },
    {
      "inputs": [
        {
          "internalType": "bytes4",
          "name": "interfaceId",
          "type": "bytes4"
        }
      ],
      "name": "supportsInterface",
      "outputs": [
        {
          "internalType": "bool",
          "name": "",
          "type": "bool"
        }
      ],
      "stateMutability": "view",
      "type": "function"
    },
    {
      "inputs": [],
      "name": "symbol",
      "outputs": [
        {
          "internalType": "string",
          "name": "",
          "type": "string"
        }
      ],
      "stateMutability": "view",
      "type": "function"
    },
    {
      "inputs": [
        {
          "internalType": "uint256",
          "name": "tokenId",
          "type": "uint256"
        }
      ],
      "name": "tokenURI",
      "outputs": [
        {
          "internalType": "string",
          "name": "",
          "type": "string"
        }
      ],
      "stateMutability": "view",
      "type": "function"
    },
    {
      "inputs": [
        {
          "internalType": "address",
          "name": "from",
          "type": "address"
        },
        {
          "internalType": "address",
          "name": "to",
          "type": "address"
        },
        {
          "internalType": "uint256",
          "name": "tokenId",
          "type": "uint256"
        }
      ],
      "name": "transferFrom",
      "outputs": [],
      "stateMutability": "nonpayable",
      "type": "function"
    },
    {
      "inputs": [
        {
          "internalType": "address",
          "name": "_to",
          "type": "address"
        },
        {
          "internalType": "uint256",
          "name": "_tokenId",
          "type": "uint256"
        }
      ],
      "name": "transferNFT",
      "outputs": [],
      "stateMutability": "nonpayable",
      "type": "function"
    },
    {
      "inputs": [
        {
          "internalType": "address",
          "name": "newOwner",
          "type": "address"
        }
      ],
      "name": "transferOwnership",
      "outputs": [],
      "stateMutability": "nonpayable",
      "type": "function"
    },
    {
      "inputs": [
        {
          "internalType": "uint256",
          "name": "_tokenId",
          "type": "uint256"
        }
      ],
      "name": "viewNFT",
      "outputs": [
        {
          "components": [
            {
              "internalType": "string",
              "name": "title",
              "type": "string"
            },
            {
              "internalType": "string",
              "name": "description",
              "type": "string"
            },
            {
              "internalType": "uint256",
              "name": "quantity",
              "type": "uint256"
            },
            {
              "internalType": "string",
              "name": "location",
              "type": "string"
            },
            {
              "internalType": "address",
              "name": "currentOwner",
              "type": "address"
            },
            {
              "internalType": "address",
              "name": "nextOwner",
              "type": "address"
            }
          ],
          "internalType": "struct SupplyMateNFT.NFTDetails",
          "name": "",
          "type": "tuple"
        }
      ],
      "stateMutability": "view",
      "type": "function"
    }
  ],
  "bytecode": "0x60806040523480156200001157600080fd5b506040516200357238038062003572833981810160405281019062000037919062000290565b806040518060400160405280600d81526020017f537570706c794d6174654e4654000000000000000000000000000000000000008152506040518060400160405280600381526020017f534d4e00000000000000000000000000000000000000000000000000000000008152508160009081620000b591906200053c565b508060019081620000c791906200053c565b505050600073ffffffffffffffffffffffffffffffffffffffff168173ffffffffffffffffffffffffffffffffffffffff16036200013f5760006040517f1e4fbdf700000000000000000000000000000000000000000000000000000000815260040162000136919062000634565b60405180910390fd5b62000150816200016060201b60201c565b5060006007819055505062000651565b6000600660009054906101000a900473ffffffffffffffffffffffffffffffffffffffff16905081600660006101000a81548173ffffffffffffffffffffffffffffffffffffffff021916908373ffffffffffffffffffffffffffffffffffffffff1602179055508173ffffffffffffffffffffffffffffffffffffffff168173ffffffffffffffffffffffffffffffffffffffff167f8be0079c531659141344cd1fd0a4f28419497f9722a3daafe3b4186f6b6457e060405160405180910390a35050565b600080fd5b600073ffffffffffffffffffffffffffffffffffffffff82169050919050565b600062000258826200022b565b9050919050565b6200026a816200024b565b81146200027657600080fd5b50565b6000815190506200028a816200025f565b92915050565b600060208284031215620002a957620002a862000226565b5b6000620002b98482850162000279565b91505092915050565b600081519050919050565b7f4e487b7100000000000000000000000000000000000000000000000000000000600052604160045260246000fd5b7f4e487b7100000000000000000000000000000000000000000000000000000000600052602260045260246000fd5b600060028204905060018216806200034457607f821691505b6020821081036200035a5762000359620002fc565b5b50919050565b60008190508160005260206000209050919050565b60006020601f8301049050919050565b600082821b905092915050565b600060088302620003c47fffffffffffffffffffffffffffffffffffffffffffffffffffffffffffffffff8262000385565b620003d0868362000385565b95508019841693508086168417925050509392505050565b6000819050919050565b6000819050919050565b60006200041d620004176200041184620003e8565b620003f2565b620003e8565b9050919050565b6000819050919050565b6200043983620003fc565b62000451620004488262000424565b84845462000392565b825550505050565b600090565b6200046862000459565b620004758184846200042e565b505050565b5b818110156200049d57620004916000826200045e565b6001810190506200047b565b5050565b601f821115620004ec57620004b68162000360565b620004c18462000375565b81016020851015620004d1578190505b620004e9620004e08562000375565b8301826200047a565b50505b505050565b600082821c905092915050565b60006200051160001984600802620004f1565b1980831691505092915050565b60006200052c8383620004fe565b9150826002028217905092915050565b6200054782620002c2565b67ffffffffffffffff811115620005635762000562620002cd565b5b6200056f82546200032b565b6200057c828285620004a1565b600060209050601f831160018114620005b457600084156200059f578287015190505b620005ab85826200051e565b8655506200061b565b601f198416620005c48662000360565b60005b82811015620005ee57848901518255600182019150602085019450602081019050620005c7565b868310156200060e57848901516200060a601f891682620004fe565b8355505b6001600288020188555050505b505050505050565b6200062e816200024b565b82525050565b60006020820190506200064b600083018462000623565b92915050565b612f1180620006616000396000f3fe608060405234801561001057600080fd5b50600436106101215760003560e01c80637b276f05116100ad578063a22cb46511610071578063a22cb4651461031a578063b88d4fde14610336578063c87b56dd14610352578063e985e9c514610382578063f2fde38b146103b257610121565b80637b276f05146102625780638da5cb5b1461029257806394ab67fe146102b057806395d89b41146102cc578063a0390245146102ea57610121565b806323b872dd116100f457806323b872dd146101c057806342842e0e146101dc5780636352211e146101f857806370a0823114610228578063715018a61461025857610121565b806301ffc9a71461012657806306fdde0314610156578063081812fc14610174578063095ea7b3146101a4575b600080fd5b610140600480360381019061013b91906120eb565b6103ce565b60405161014d9190612133565b60405180910390f35b61015e6104b0565b60405161016b91906121de565b60405180910390f35b61018e60048036038101906101899190612236565b610542565b60405161019b91906122a4565b60405180910390f35b6101be60048036038101906101b991906122eb565b61055e565b005b6101da60048036038101906101d5919061232b565b610574565b005b6101f660048036038101906101f1919061232b565b610676565b005b610212600480360381019061020d9190612236565b610696565b60405161021f91906122a4565b60405180910390f35b610242600480360381019061023d919061237e565b6106a8565b60405161024f91906123ba565b60405180910390f35b610260610762565b005b61027c60048036038101906102779190612236565b610776565b60405161028991906124d4565b60405180910390f35b61029a610a86565b6040516102a791906122a4565b60405180910390f35b6102ca60048036038101906102c591906122eb565b610ab0565b005b6102d4610c57565b6040516102e191906121de565b60405180910390f35b61030460048036038101906102ff919061262b565b610ce9565b60405161031191906123ba565b60405180910390f35b610334600480360381019061032f9190612726565b610e6c565b005b610350600480360381019061034b9190612807565b610e82565b005b61036c60048036038101906103679190612236565b610e9f565b60405161037991906121de565b60405180910390f35b61039c6004803603810190610397919061288a565b610f08565b6040516103a99190612133565b60405180910390f35b6103cc60048036038101906103c7919061237e565b610f9c565b005b60007f80ac58cd000000000000000000000000000000000000000000000000000000007bffffffffffffffffffffffffffffffffffffffffffffffffffffffff1916827bffffffffffffffffffffffffffffffffffffffffffffffffffffffff1916148061049957507f5b5e139f000000000000000000000000000000000000000000000000000000007bffffffffffffffffffffffffffffffffffffffffffffffffffffffff1916827bffffffffffffffffffffffffffffffffffffffffffffffffffffffff1916145b806104a957506104a882611022565b5b9050919050565b6060600080546104bf906128f9565b80601f01602080910402602001604051908101604052809291908181526020018280546104eb906128f9565b80156105385780601f1061050d57610100808354040283529160200191610538565b820191906000526020600020905b81548152906001019060200180831161051b57829003601f168201915b5050505050905090565b600061054d8261108c565b5061055782611114565b9050919050565b610570828261056b611151565b611159565b5050565b600073ffffffffffffffffffffffffffffffffffffffff168273ffffffffffffffffffffffffffffffffffffffff16036105e65760006040517f64a0ae920000000000000000000000000000000000000000000000000000000081526004016105dd91906122a4565b60405180910390fd5b60006105fa83836105f5611151565b61116b565b90508373ffffffffffffffffffffffffffffffffffffffff168173ffffffffffffffffffffffffffffffffffffffff1614610670578382826040517f64283d7b0000000000000000000000000000000000000000000000000000000081526004016106679392919061292a565b60405180910390fd5b50505050565b61069183838360405180602001604052806000815250610e82565b505050565b60006106a18261108c565b9050919050565b60008073ffffffffffffffffffffffffffffffffffffffff168273ffffffffffffffffffffffffffffffffffffffff160361071b5760006040517f89c62b6400000000000000000000000000000000000000000000000000000000815260040161071291906122a4565b60405180910390fd5b600360008373ffffffffffffffffffffffffffffffffffffffff1673ffffffffffffffffffffffffffffffffffffffff168152602001908152602001600020549050919050565b61076a611385565b610774600061140c565b565b61077e61201d565b600073ffffffffffffffffffffffffffffffffffffffff1661079f836114d2565b73ffffffffffffffffffffffffffffffffffffffff16036107f5576040517f08c379a00000000000000000000000000000000000000000000000000000000081526004016107ec906129ad565b60405180910390fd5b600860008381526020019081526020016000206040518060c0016040529081600082018054610823906128f9565b80601f016020809104026020016040519081016040528092919081815260200182805461084f906128f9565b801561089c5780601f106108715761010080835404028352916020019161089c565b820191906000526020600020905b81548152906001019060200180831161087f57829003601f168201915b505050505081526020016001820180546108b5906128f9565b80601f01602080910402602001604051908101604052809291908181526020018280546108e1906128f9565b801561092e5780601f106109035761010080835404028352916020019161092e565b820191906000526020600020905b81548152906001019060200180831161091157829003601f168201915b5050505050815260200160028201548152602001600382018054610951906128f9565b80601f016020809104026020016040519081016040528092919081815260200182805461097d906128f9565b80156109ca5780601f1061099f576101008083540402835291602001916109ca565b820191906000526020600020905b8154815290600101906020018083116109ad57829003601f168201915b505050505081526020016004820160009054906101000a900473ffffffffffffffffffffffffffffffffffffffff1673ffffffffffffffffffffffffffffffffffffffff1673ffffffffffffffffffffffffffffffffffffffff1681526020016005820160009054906101000a900473ffffffffffffffffffffffffffffffffffffffff1673ffffffffffffffffffffffffffffffffffffffff1673ffffffffffffffffffffffffffffffffffffffff16815250509050919050565b6000600660009054906101000a900473ffffffffffffffffffffffffffffffffffffffff16905090565b600073ffffffffffffffffffffffffffffffffffffffff16610ad1826114d2565b73ffffffffffffffffffffffffffffffffffffffff1603610b27576040517f08c379a0000000000000000000000000000000000000000000000000000000008152600401610b1e906129ad565b60405180910390fd5b3373ffffffffffffffffffffffffffffffffffffffff16610b4782610696565b73ffffffffffffffffffffffffffffffffffffffff1614610b9d576040517f08c379a0000000000000000000000000000000000000000000000000000000008152600401610b9490612a3f565b60405180910390fd5b610ba833838361150f565b816008600083815260200190815260200160002060040160006101000a81548173ffffffffffffffffffffffffffffffffffffffff021916908373ffffffffffffffffffffffffffffffffffffffff16021790555060006008600083815260200190815260200160002060050160006101000a81548173ffffffffffffffffffffffffffffffffffffffff021916908373ffffffffffffffffffffffffffffffffffffffff1602179055505050565b606060018054610c66906128f9565b80601f0160208091040260200160405190810160405280929190818152602001828054610c92906128f9565b8015610cdf5780601f10610cb457610100808354040283529160200191610cdf565b820191906000526020600020905b815481529060010190602001808311610cc257829003601f168201915b5050505050905090565b6000600160076000828254610cfe9190612a8e565b9250508190555060006007549050610d16338261167c565b6040518060c001604052808881526020018781526020018681526020018581526020013373ffffffffffffffffffffffffffffffffffffffff1681526020018473ffffffffffffffffffffffffffffffffffffffff16815250600860008381526020019081526020016000206000820151816000019081610d979190612c6e565b506020820151816001019081610dad9190612c6e565b50604082015181600201556060820151816003019081610dcd9190612c6e565b5060808201518160040160006101000a81548173ffffffffffffffffffffffffffffffffffffffff021916908373ffffffffffffffffffffffffffffffffffffffff16021790555060a08201518160050160006101000a81548173ffffffffffffffffffffffffffffffffffffffff021916908373ffffffffffffffffffffffffffffffffffffffff1602179055509050508091505095945050505050565b610e7e610e77611151565b8383611775565b5050565b610e8d848484610574565b610e99848484846118e4565b50505050565b6060610eaa8261108c565b506000610eb5611a9b565b90506000815111610ed55760405180602001604052806000815250610f00565b80610edf84611ab2565b604051602001610ef0929190612d7c565b6040516020818303038152906040525b915050919050565b6000600560008473ffffffffffffffffffffffffffffffffffffffff1673ffffffffffffffffffffffffffffffffffffffff16815260200190815260200160002060008373ffffffffffffffffffffffffffffffffffffffff1673ffffffffffffffffffffffffffffffffffffffff16815260200190815260200160002060009054906101000a900460ff16905092915050565b610fa4611385565b600073ffffffffffffffffffffffffffffffffffffffff168173ffffffffffffffffffffffffffffffffffffffff16036110165760006040517f1e4fbdf700000000000000000000000000000000000000000000000000000000815260040161100d91906122a4565b60405180910390fd5b61101f8161140c565b50565b60007f01ffc9a7000000000000000000000000000000000000000000000000000000007bffffffffffffffffffffffffffffffffffffffffffffffffffffffff1916827bffffffffffffffffffffffffffffffffffffffffffffffffffffffff1916149050919050565b600080611098836114d2565b9050600073ffffffffffffffffffffffffffffffffffffffff168173ffffffffffffffffffffffffffffffffffffffff160361110b57826040517f7e27328900000000000000000000000000000000000000000000000000000000815260040161110291906123ba565b60405180910390fd5b80915050919050565b60006004600083815260200190815260200160002060009054906101000a900473ffffffffffffffffffffffffffffffffffffffff169050919050565b600033905090565b6111668383836001611b80565b505050565b600080611177846114d2565b9050600073ffffffffffffffffffffffffffffffffffffffff168373ffffffffffffffffffffffffffffffffffffffff16146111b9576111b8818486611d45565b5b600073ffffffffffffffffffffffffffffffffffffffff168173ffffffffffffffffffffffffffffffffffffffff161461124a576111fb600085600080611b80565b6001600360008373ffffffffffffffffffffffffffffffffffffffff1673ffffffffffffffffffffffffffffffffffffffff168152602001908152602001600020600082825403925050819055505b600073ffffffffffffffffffffffffffffffffffffffff168573ffffffffffffffffffffffffffffffffffffffff16146112cd576001600360008773ffffffffffffffffffffffffffffffffffffffff1673ffffffffffffffffffffffffffffffffffffffff168152602001908152602001600020600082825401925050819055505b846002600086815260200190815260200160002060006101000a81548173ffffffffffffffffffffffffffffffffffffffff021916908373ffffffffffffffffffffffffffffffffffffffff160217905550838573ffffffffffffffffffffffffffffffffffffffff168273ffffffffffffffffffffffffffffffffffffffff167fddf252ad1be2c89b69c2b068fc378daa952ba7f163c4a11628f55a4df523b3ef60405160405180910390a4809150509392505050565b61138d611151565b73ffffffffffffffffffffffffffffffffffffffff166113ab610a86565b73ffffffffffffffffffffffffffffffffffffffff161461140a576113ce611151565b6040517f118cdaa700000000000000000000000000000000000000000000000000000000815260040161140191906122a4565b60405180910390fd5b565b6000600660009054906101000a900473ffffffffffffffffffffffffffffffffffffffff16905081600660006101000a81548173ffffffffffffffffffffffffffffffffffffffff021916908373ffffffffffffffffffffffffffffffffffffffff1602179055508173ffffffffffffffffffffffffffffffffffffffff168173ffffffffffffffffffffffffffffffffffffffff167f8be0079c531659141344cd1fd0a4f28419497f9722a3daafe3b4186f6b6457e060405160405180910390a35050565b60006002600083815260200190815260200160002060009054906101000a900473ffffffffffffffffffffffffffffffffffffffff169050919050565b600073ffffffffffffffffffffffffffffffffffffffff168273ffffffffffffffffffffffffffffffffffffffff16036115815760006040517f64a0ae9200000000000000000000000000000000000000000000000000000000815260040161157891906122a4565b60405180910390fd5b600061158f8383600061116b565b9050600073ffffffffffffffffffffffffffffffffffffffff168173ffffffffffffffffffffffffffffffffffffffff160361160257816040517f7e2732890000000000000000000000000000000000000000000000000000000081526004016115f991906123ba565b60405180910390fd5b8373ffffffffffffffffffffffffffffffffffffffff168173ffffffffffffffffffffffffffffffffffffffff1614611676578382826040517f64283d7b00000000000000000000000000000000000000000000000000000000815260040161166d9392919061292a565b60405180910390fd5b50505050565b600073ffffffffffffffffffffffffffffffffffffffff168273ffffffffffffffffffffffffffffffffffffffff16036116ee5760006040517f64a0ae920000000000000000000000000000000000000000000000000000000081526004016116e591906122a4565b60405180910390fd5b60006116fc8383600061116b565b9050600073ffffffffffffffffffffffffffffffffffffffff168173ffffffffffffffffffffffffffffffffffffffff16146117705760006040517f73c6ac6e00000000000000000000000000000000000000000000000000000000815260040161176791906122a4565b60405180910390fd5b505050565b600073ffffffffffffffffffffffffffffffffffffffff168273ffffffffffffffffffffffffffffffffffffffff16036117e657816040517f5b08ba180000000000000000000000000000000000000000000000000000000081526004016117dd91906122a4565b60405180910390fd5b80600560008573ffffffffffffffffffffffffffffffffffffffff1673ffffffffffffffffffffffffffffffffffffffff16815260200190815260200160002060008473ffffffffffffffffffffffffffffffffffffffff1673ffffffffffffffffffffffffffffffffffffffff16815260200190815260200160002060006101000a81548160ff0219169083151502179055508173ffffffffffffffffffffffffffffffffffffffff168373ffffffffffffffffffffffffffffffffffffffff167f17307eab39ab6107e8899845ad3d59bd9653f200f220920489ca2b5937696c31836040516118d79190612133565b60405180910390a3505050565b60008373ffffffffffffffffffffffffffffffffffffffff163b1115611a95578273ffffffffffffffffffffffffffffffffffffffff1663150b7a02611928611151565b8685856040518563ffffffff1660e01b815260040161194a9493929190612df5565b6020604051808303816000875af192505050801561198657506040513d601f19601f820116820180604052508101906119839190612e56565b60015b611a0a573d80600081146119b6576040519150601f19603f3d011682016040523d82523d6000602084013e6119bb565b606091505b506000815103611a0257836040517f64a0ae920000000000000000000000000000000000000000000000000000000081526004016119f991906122a4565b60405180910390fd5b805181602001fd5b63150b7a0260e01b7bffffffffffffffffffffffffffffffffffffffffffffffffffffffff1916817bffffffffffffffffffffffffffffffffffffffffffffffffffffffff191614611a9357836040517f64a0ae92000000000000000000000000000000000000000000000000000000008152600401611a8a91906122a4565b60405180910390fd5b505b50505050565b606060405180602001604052806000815250905090565b606060006001611ac184611e09565b01905060008167ffffffffffffffff811115611ae057611adf612500565b5b6040519080825280601f01601f191660200182016040528015611b125781602001600182028036833780820191505090505b509050600082602001820190505b600115611b75578080600190039150507f3031323334353637383961626364656600000000000000000000000000000000600a86061a8153600a8581611b6957611b68612e83565b5b04945060008503611b20575b819350505050919050565b8080611bb95750600073ffffffffffffffffffffffffffffffffffffffff168273ffffffffffffffffffffffffffffffffffffffff1614155b15611ced576000611bc98461108c565b9050600073ffffffffffffffffffffffffffffffffffffffff168373ffffffffffffffffffffffffffffffffffffffff1614158015611c3457508273ffffffffffffffffffffffffffffffffffffffff168173ffffffffffffffffffffffffffffffffffffffff1614155b8015611c475750611c458184610f08565b155b15611c8957826040517fa9fbf51f000000000000000000000000000000000000000000000000000000008152600401611c8091906122a4565b60405180910390fd5b8115611ceb57838573ffffffffffffffffffffffffffffffffffffffff168273ffffffffffffffffffffffffffffffffffffffff167f8c5be1e5ebec7d5bd14f71427d1e84f3dd0314c0f7b2291e5b200ac8c7c3b92560405160405180910390a45b505b836004600085815260200190815260200160002060006101000a81548173ffffffffffffffffffffffffffffffffffffffff021916908373ffffffffffffffffffffffffffffffffffffffff16021790555050505050565b611d50838383611f5c565b611e0457600073ffffffffffffffffffffffffffffffffffffffff168373ffffffffffffffffffffffffffffffffffffffff1603611dc557806040517f7e273289000000000000000000000000000000000000000000000000000000008152600401611dbc91906123ba565b60405180910390fd5b81816040517f177e802f000000000000000000000000000000000000000000000000000000008152600401611dfb929190612eb2565b60405180910390fd5b505050565b600080600090507a184f03e93ff9f4daa797ed6e38ed64bf6a1f0100000000000000008310611e67577a184f03e93ff9f4daa797ed6e38ed64bf6a1f0100000000000000008381611e5d57611e5c612e83565b5b0492506040810190505b6d04ee2d6d415b85acef81000000008310611ea4576d04ee2d6d415b85acef81000000008381611e9a57611e99612e83565b5b0492506020810190505b662386f26fc100008310611ed357662386f26fc100008381611ec957611ec8612e83565b5b0492506010810190505b6305f5e1008310611efc576305f5e1008381611ef257611ef1612e83565b5b0492506008810190505b6127108310611f21576127108381611f1757611f16612e83565b5b0492506004810190505b60648310611f445760648381611f3a57611f39612e83565b5b0492506002810190505b600a8310611f53576001810190505b80915050919050565b60008073ffffffffffffffffffffffffffffffffffffffff168373ffffffffffffffffffffffffffffffffffffffff161415801561201457508273ffffffffffffffffffffffffffffffffffffffff168473ffffffffffffffffffffffffffffffffffffffff161480611fd55750611fd48484610f08565b5b8061201357508273ffffffffffffffffffffffffffffffffffffffff16611ffb83611114565b73ffffffffffffffffffffffffffffffffffffffff16145b5b90509392505050565b6040518060c0016040528060608152602001606081526020016000815260200160608152602001600073ffffffffffffffffffffffffffffffffffffffff168152602001600073ffffffffffffffffffffffffffffffffffffffff1681525090565b6000604051905090565b600080fd5b600080fd5b60007fffffffff0000000000000000000000000000000000000000000000000000000082169050919050565b6120c881612093565b81146120d357600080fd5b50565b6000813590506120e5816120bf565b92915050565b60006020828403121561210157612100612089565b5b600061210f848285016120d6565b91505092915050565b60008115159050919050565b61212d81612118565b82525050565b60006020820190506121486000830184612124565b92915050565b600081519050919050565b600082825260208201905092915050565b60005b8381101561218857808201518184015260208101905061216d565b60008484015250505050565b6000601f19601f8301169050919050565b60006121b08261214e565b6121ba8185612159565b93506121ca81856020860161216a565b6121d381612194565b840191505092915050565b600060208201905081810360008301526121f881846121a5565b905092915050565b6000819050919050565b61221381612200565b811461221e57600080fd5b50565b6000813590506122308161220a565b92915050565b60006020828403121561224c5761224b612089565b5b600061225a84828501612221565b91505092915050565b600073ffffffffffffffffffffffffffffffffffffffff82169050919050565b600061228e82612263565b9050919050565b61229e81612283565b82525050565b60006020820190506122b96000830184612295565b92915050565b6122c881612283565b81146122d357600080fd5b50565b6000813590506122e5816122bf565b92915050565b6000806040838503121561230257612301612089565b5b6000612310858286016122d6565b925050602061232185828601612221565b9150509250929050565b60008060006060848603121561234457612343612089565b5b6000612352868287016122d6565b9350506020612363868287016122d6565b925050604061237486828701612221565b9150509250925092565b60006020828403121561239457612393612089565b5b60006123a2848285016122d6565b91505092915050565b6123b481612200565b82525050565b60006020820190506123cf60008301846123ab565b92915050565b600082825260208201905092915050565b60006123f18261214e565b6123fb81856123d5565b935061240b81856020860161216a565b61241481612194565b840191505092915050565b61242881612200565b82525050565b61243781612283565b82525050565b600060c083016000830151848203600086015261245a82826123e6565b9150506020830151848203602086015261247482826123e6565b9150506040830151612489604086018261241f565b50606083015184820360608601526124a182826123e6565b91505060808301516124b6608086018261242e565b5060a08301516124c960a086018261242e565b508091505092915050565b600060208201905081810360008301526124ee818461243d565b905092915050565b600080fd5b600080fd5b7f4e487b7100000000000000000000000000000000000000000000000000000000600052604160045260246000fd5b61253882612194565b810181811067ffffffffffffffff8211171561255757612556612500565b5b80604052505050565b600061256a61207f565b9050612576828261252f565b919050565b600067ffffffffffffffff82111561259657612595612500565b5b61259f82612194565b9050602081019050919050565b82818337600083830152505050565b60006125ce6125c98461257b565b612560565b9050828152602081018484840111156125ea576125e96124fb565b5b6125f58482856125ac565b509392505050565b600082601f830112612612576126116124f6565b5b81356126228482602086016125bb565b91505092915050565b600080600080600060a0868803121561264757612646612089565b5b600086013567ffffffffffffffff8111156126655761266461208e565b5b612671888289016125fd565b955050602086013567ffffffffffffffff8111156126925761269161208e565b5b61269e888289016125fd565b94505060406126af88828901612221565b935050606086013567ffffffffffffffff8111156126d0576126cf61208e565b5b6126dc888289016125fd565b92505060806126ed888289016122d6565b9150509295509295909350565b61270381612118565b811461270e57600080fd5b50565b600081359050612720816126fa565b92915050565b6000806040838503121561273d5761273c612089565b5b600061274b858286016122d6565b925050602061275c85828601612711565b9150509250929050565b600067ffffffffffffffff82111561278157612780612500565b5b61278a82612194565b9050602081019050919050565b60006127aa6127a584612766565b612560565b9050828152602081018484840111156127c6576127c56124fb565b5b6127d18482856125ac565b509392505050565b600082601f8301126127ee576127ed6124f6565b5b81356127fe848260208601612797565b91505092915050565b6000806000806080858703121561282157612820612089565b5b600061282f878288016122d6565b9450506020612840878288016122d6565b935050604061285187828801612221565b925050606085013567ffffffffffffffff8111156128725761287161208e565b5b61287e878288016127d9565b91505092959194509250565b600080604083850312156128a1576128a0612089565b5b60006128af858286016122d6565b92505060206128c0858286016122d6565b9150509250929050565b7f4e487b7100000000000000000000000000000000000000000000000000000000600052602260045260246000fd5b6000600282049050600182168061291157607f821691505b602082108103612924576129236128ca565b5b50919050565b600060608201905061293f6000830186612295565b61294c60208301856123ab565b6129596040830184612295565b949350505050565b7f4e465420646f6573206e6f742065786973740000000000000000000000000000600082015250565b6000612997601283612159565b91506129a282612961565b602082019050919050565b600060208201905081810360008301526129c68161298a565b9050919050565b7f4f6e6c79207468652063757272656e74206f776e65722063616e207472616e7360008201527f6665722074686973204e46540000000000000000000000000000000000000000602082015250565b6000612a29602c83612159565b9150612a34826129cd565b604082019050919050565b60006020820190508181036000830152612a5881612a1c565b9050919050565b7f4e487b7100000000000000000000000000000000000000000000000000000000600052601160045260246000fd5b6000612a9982612200565b9150612aa483612200565b9250828201905080821115612abc57612abb612a5f565b5b92915050565b60008190508160005260206000209050919050565b60006020601f8301049050919050565b600082821b905092915050565b600060088302612b247fffffffffffffffffffffffffffffffffffffffffffffffffffffffffffffffff82612ae7565b612b2e8683612ae7565b95508019841693508086168417925050509392505050565b6000819050919050565b6000612b6b612b66612b6184612200565b612b46565b612200565b9050919050565b6000819050919050565b612b8583612b50565b612b99612b9182612b72565b848454612af4565b825550505050565b600090565b612bae612ba1565b612bb9818484612b7c565b505050565b5b81811015612bdd57612bd2600082612ba6565b600181019050612bbf565b5050565b601f821115612c2257612bf381612ac2565b612bfc84612ad7565b81016020851015612c0b578190505b612c1f612c1785612ad7565b830182612bbe565b50505b505050565b600082821c905092915050565b6000612c4560001984600802612c27565b1980831691505092915050565b6000612c5e8383612c34565b9150826002028217905092915050565b612c778261214e565b67ffffffffffffffff811115612c9057612c8f612500565b5b612c9a82546128f9565b612ca5828285612be1565b600060209050601f831160018114612cd85760008415612cc6578287015190505b612cd08582612c52565b865550612d38565b601f198416612ce686612ac2565b60005b82811015612d0e57848901518255600182019150602085019450602081019050612ce9565b86831015612d2b5784890151612d27601f891682612c34565b8355505b6001600288020188555050505b505050505050565b600081905092915050565b6000612d568261214e565b612d608185612d40565b9350612d7081856020860161216a565b80840191505092915050565b6000612d888285612d4b565b9150612d948284612d4b565b91508190509392505050565b600081519050919050565b600082825260208201905092915050565b6000612dc782612da0565b612dd18185612dab565b9350612de181856020860161216a565b612dea81612194565b840191505092915050565b6000608082019050612e0a6000830187612295565b612e176020830186612295565b612e2460408301856123ab565b8181036060830152612e368184612dbc565b905095945050505050565b600081519050612e50816120bf565b92915050565b600060208284031215612e6c57612e6b612089565b5b6000612e7a84828501612e41565b91505092915050565b7f4e487b7100000000000000000000000000000000000000000000000000000000600052601260045260246000fd5b6000604082019050612ec76000830185612295565b612ed460208301846123ab565b939250505056fea26469706673582212206b72f7c32e4f05edfa697cd687ef3fb0ae969a9f6fba13426b79a15fb593558f64736f6c63430008180033",
  "linkReferences": {},
  "deployedLinkReferences": {}
}