{
  "_format": "hh-sol-artifact-1",
  "contractName": "SupplyMateNFT",
  "sourceName": "contracts/SupplyMate.sol",
  "abi": [
    {
      "inputs": [
        {
          "internalType": "address",
          "name": "initialOwner",
          "type": "address"
        }
      ],
      "stateMutability": "nonpayable",
      "type": "constructor"
    },
    {
      "inputs": [
        {
          "internalType": "address",
          "name": "sender",
          "type": "address"
        },
        {
          "internalType": "uint256",
          "name": "tokenId",
          "type": "uint256"
        },
        {
          "internalType": "address",
          "name": "owner",
          "type": "address"
        }
      ],
      "name": "ERC721IncorrectOwner",
      "type": "error"
    },
    {
      "inputs": [
        {
          "internalType": "address",
          "name": "operator",
          "type": "address"
        },
        {
          "internalType": "uint256",
          "name": "tokenId",
          "type": "uint256"
        }
      ],
      "name": "ERC721InsufficientApproval",
      "type": "error"
    },
    {
      "inputs": [
        {
          "internalType": "address",
          "name": "approver",
          "type": "address"
        }
      ],
      "name": "ERC721InvalidApprover",
      "type": "error"
    },
    {
      "inputs": [
        {
          "internalType": "address",
          "name": "operator",
          "type": "address"
        }
      ],
      "name": "ERC721InvalidOperator",
      "type": "error"
    },
    {
      "inputs": [
        {
          "internalType": "address",
          "name": "owner",
          "type": "address"
        }
      ],
      "name": "ERC721InvalidOwner",
      "type": "error"
    },
    {
      "inputs": [
        {
          "internalType": "address",
          "name": "receiver",
          "type": "address"
        }
      ],
      "name": "ERC721InvalidReceiver",
      "type": "error"
    },
    {
      "inputs": [
        {
          "internalType": "address",
          "name": "sender",
          "type": "address"
        }
      ],
      "name": "ERC721InvalidSender",
      "type": "error"
    },
    {
      "inputs": [
        {
          "internalType": "uint256",
          "name": "tokenId",
          "type": "uint256"
        }
      ],
      "name": "ERC721NonexistentToken",
      "type": "error"
    },
    {
      "inputs": [
        {
          "internalType": "address",
          "name": "owner",
          "type": "address"
        }
      ],
      "name": "OwnableInvalidOwner",
      "type": "error"
    },
    {
      "inputs": [
        {
          "internalType": "address",
          "name": "account",
          "type": "address"
        }
      ],
      "name": "OwnableUnauthorizedAccount",
      "type": "error"
    },
    {
      "anonymous": false,
      "inputs": [
        {
          "indexed": true,
          "internalType": "address",
          "name": "owner",
          "type": "address"
        },
        {
          "indexed": true,
          "internalType": "address",
          "name": "approved",
          "type": "address"
        },
        {
          "indexed": true,
          "internalType": "uint256",
          "name": "tokenId",
          "type": "uint256"
        }
      ],
      "name": "Approval",
      "type": "event"
    },
    {
      "anonymous": false,
      "inputs": [
        {
          "indexed": true,
          "internalType": "address",
          "name": "owner",
          "type": "address"
        },
        {
          "indexed": true,
          "internalType": "address",
          "name": "operator",
          "type": "address"
        },
        {
          "indexed": false,
          "internalType": "bool",
          "name": "approved",
          "type": "bool"
        }
      ],
      "name": "ApprovalForAll",
      "type": "event"
    },
    {
      "anonymous": false,
      "inputs": [
        {
          "indexed": true,
          "internalType": "uint256",
          "name": "tokenId",
          "type": "uint256"
        }
      ],
      "name": "NFTBurned",
      "type": "event"
    },
    {
      "anonymous": false,
      "inputs": [
        {
          "indexed": true,
          "internalType": "uint256",
          "name": "tokenId",
          "type": "uint256"
        }
      ],
      "name": "NFTDetailsUpdated",
      "type": "event"
    },
    {
      "anonymous": false,
      "inputs": [
        {
          "indexed": true,
          "internalType": "uint256",
          "name": "tokenId",
          "type": "uint256"
        },
        {
          "indexed": true,
          "internalType": "address",
          "name": "owner",
          "type": "address"
        }
      ],
      "name": "NFTMinted",
      "type": "event"
    },
    {
      "anonymous": false,
      "inputs": [
        {
          "indexed": true,
          "internalType": "uint256",
          "name": "tokenId",
          "type": "uint256"
        },
        {
          "indexed": true,
          "internalType": "address",
          "name": "from",
          "type": "address"
        },
        {
          "indexed": true,
          "internalType": "address",
          "name": "to",
          "type": "address"
        }
      ],
      "name": "NFTTransferred",
      "type": "event"
    },
    {
      "anonymous": false,
      "inputs": [
        {
          "indexed": true,
          "internalType": "address",
          "name": "previousOwner",
          "type": "address"
        },
        {
          "indexed": true,
          "internalType": "address",
          "name": "newOwner",
          "type": "address"
        }
      ],
      "name": "OwnershipTransferred",
      "type": "event"
    },
    {
      "anonymous": false,
      "inputs": [
        {
          "indexed": true,
          "internalType": "address",
          "name": "from",
          "type": "address"
        },
        {
          "indexed": true,
          "internalType": "address",
          "name": "to",
          "type": "address"
        },
        {
          "indexed": true,
          "internalType": "uint256",
          "name": "tokenId",
          "type": "uint256"
        }
      ],
      "name": "Transfer",
      "type": "event"
    },
    {
      "inputs": [
        {
          "internalType": "address",
          "name": "to",
          "type": "address"
        },
        {
          "internalType": "uint256",
          "name": "tokenId",
          "type": "uint256"
        }
      ],
      "name": "approve",
      "outputs": [],
      "stateMutability": "nonpayable",
      "type": "function"
    },
    {
      "inputs": [
        {
          "internalType": "address",
          "name": "owner",
          "type": "address"
        }
      ],
      "name": "balanceOf",
      "outputs": [
        {
          "internalType": "uint256",
          "name": "",
          "type": "uint256"
        }
      ],
      "stateMutability": "view",
      "type": "function"
    },
    {
      "inputs": [
        {
          "internalType": "uint256",
          "name": "_tokenId",
          "type": "uint256"
        }
      ],
      "name": "burnNFT",
      "outputs": [],
      "stateMutability": "nonpayable",
      "type": "function"
    },
    {
      "inputs": [
        {
          "internalType": "uint256",
          "name": "tokenId",
          "type": "uint256"
        }
      ],
      "name": "getApproved",
      "outputs": [
        {
          "internalType": "address",
          "name": "",
          "type": "address"
        }
      ],
      "stateMutability": "view",
      "type": "function"
    },
    {
      "inputs": [
        {
          "internalType": "address",
          "name": "owner",
          "type": "address"
        },
        {
          "internalType": "address",
          "name": "operator",
          "type": "address"
        }
      ],
      "name": "isApprovedForAll",
      "outputs": [
        {
          "internalType": "bool",
          "name": "",
          "type": "bool"
        }
      ],
      "stateMutability": "view",
      "type": "function"
    },
    {
      "inputs": [
        {
          "internalType": "string",
          "name": "_title",
          "type": "string"
        },
        {
          "internalType": "string",
          "name": "_description",
          "type": "string"
        },
        {
          "internalType": "uint256",
          "name": "_quantity",
          "type": "uint256"
        },
        {
          "internalType": "string",
          "name": "_location",
          "type": "string"
        },
        {
          "internalType": "address",
          "name": "_nextOwner",
          "type": "address"
        }
      ],
      "name": "mintNFT",
      "outputs": [
        {
          "internalType": "uint256",
          "name": "",
          "type": "uint256"
        }
      ],
      "stateMutability": "nonpayable",
      "type": "function"
    },
    {
      "inputs": [],
      "name": "name",
      "outputs": [
        {
          "internalType": "string",
          "name": "",
          "type": "string"
        }
      ],
      "stateMutability": "view",
      "type": "function"
    },
    {
      "inputs": [],
      "name": "owner",
      "outputs": [
        {
          "internalType": "address",
          "name": "",
          "type": "address"
        }
      ],
      "stateMutability": "view",
      "type": "function"
    },
    {
      "inputs": [
        {
          "internalType": "uint256",
          "name": "tokenId",
          "type": "uint256"
        }
      ],
      "name": "ownerOf",
      "outputs": [
        {
          "internalType": "address",
          "name": "",
          "type": "address"
        }
      ],
      "stateMutability": "view",
      "type": "function"
    },
    {
      "inputs": [],
      "name": "renounceOwnership",
      "outputs": [],
      "stateMutability": "nonpayable",
      "type": "function"
    },
    {
      "inputs": [
        {
          "internalType": "address",
          "name": "from",
          "type": "address"
        },
        {
          "internalType": "address",
          "name": "to",
          "type": "address"
        },
        {
          "internalType": "uint256",
          "name": "tokenId",
          "type": "uint256"
        }
      ],
      "name": "safeTransferFrom",
      "outputs": [],
      "stateMutability": "nonpayable",
      "type": "function"
    },
    {
      "inputs": [
        {
          "internalType": "address",
          "name": "from",
          "type": "address"
        },
        {
          "internalType": "address",
          "name": "to",
          "type": "address"
        },
        {
          "internalType": "uint256",
          "name": "tokenId",
          "type": "uint256"
        },
        {
          "internalType": "bytes",
          "name": "data",
          "type": "bytes"
        }
      ],
      "name": "safeTransferFrom",
      "outputs": [],
      "stateMutability": "nonpayable",
      "type": "function"
    },
    {
      "inputs": [
        {
          "internalType": "address",
          "name": "operator",
          "type": "address"
        },
        {
          "internalType": "bool",
          "name": "approved",
          "type": "bool"
        }
      ],
      "name": "setApprovalForAll",
      "outputs": [],
      "stateMutability": "nonpayable",
      "type": "function"
    },
    {
      "inputs": [
        {
          "internalType": "bytes4",
          "name": "interfaceId",
          "type": "bytes4"
        }
      ],
      "name": "supportsInterface",
      "outputs": [
        {
          "internalType": "bool",
          "name": "",
          "type": "bool"
        }
      ],
      "stateMutability": "view",
      "type": "function"
    },
    {
      "inputs": [],
      "name": "symbol",
      "outputs": [
        {
          "internalType": "string",
          "name": "",
          "type": "string"
        }
      ],
      "stateMutability": "view",
      "type": "function"
    },
    {
      "inputs": [
        {
          "internalType": "uint256",
          "name": "tokenId",
          "type": "uint256"
        }
      ],
      "name": "tokenURI",
      "outputs": [
        {
          "internalType": "string",
          "name": "",
          "type": "string"
        }
      ],
      "stateMutability": "view",
      "type": "function"
    },
    {
      "inputs": [
        {
          "internalType": "address",
          "name": "from",
          "type": "address"
        },
        {
          "internalType": "address",
          "name": "to",
          "type": "address"
        },
        {
          "internalType": "uint256",
          "name": "tokenId",
          "type": "uint256"
        }
      ],
      "name": "transferFrom",
      "outputs": [],
      "stateMutability": "nonpayable",
      "type": "function"
    },
    {
      "inputs": [
        {
          "internalType": "uint256",
          "name": "_tokenId",
          "type": "uint256"
        },
        {
          "internalType": "address",
          "name": "_newNextOwner",
          "type": "address"
        }
      ],
      "name": "transferNFT",
      "outputs": [],
      "stateMutability": "nonpayable",
      "type": "function"
    },
    {
      "inputs": [
        {
          "internalType": "address",
          "name": "newOwner",
          "type": "address"
        }
      ],
      "name": "transferOwnership",
      "outputs": [],
      "stateMutability": "nonpayable",
      "type": "function"
    },
    {
      "inputs": [
        {
          "internalType": "uint256",
          "name": "_tokenId",
          "type": "uint256"
        }
      ],
      "name": "viewNFT",
      "outputs": [
        {
          "components": [
            {
              "internalType": "string",
              "name": "title",
              "type": "string"
            },
            {
              "internalType": "string",
              "name": "description",
              "type": "string"
            },
            {
              "internalType": "uint256",
              "name": "quantity",
              "type": "uint256"
            },
            {
              "internalType": "string",
              "name": "location",
              "type": "string"
            },
            {
              "internalType": "address",
              "name": "currentOwner",
              "type": "address"
            },
            {
              "internalType": "address",
              "name": "nextOwner",
              "type": "address"
            }
          ],
          "internalType": "struct SupplyMateNFT.NFTDetails",
          "name": "",
          "type": "tuple"
        }
      ],
      "stateMutability": "view",
      "type": "function"
    },
    {
      "inputs": [
        {
          "internalType": "address",
          "name": "_owner",
          "type": "address"
        }
      ],
      "name": "viewNFTsByOwner",
      "outputs": [
        {
          "components": [
            {
              "internalType": "string",
              "name": "title",
              "type": "string"
            },
            {
              "internalType": "string",
              "name": "description",
              "type": "string"
            },
            {
              "internalType": "uint256",
              "name": "quantity",
              "type": "uint256"
            },
            {
              "internalType": "string",
              "name": "location",
              "type": "string"
            },
            {
              "internalType": "address",
              "name": "currentOwner",
              "type": "address"
            },
            {
              "internalType": "address",
              "name": "nextOwner",
              "type": "address"
            }
          ],
          "internalType": "struct SupplyMateNFT.NFTDetails[]",
          "name": "",
          "type": "tuple[]"
        }
      ],
      "stateMutability": "view",
      "type": "function"
    }
  ],
  "bytecode": "0x60806040523480156200001157600080fd5b506040516200406d3803806200406d833981810160405281019062000037919062000290565b806040518060400160405280600d81526020017f537570706c794d6174654e4654000000000000000000000000000000000000008152506040518060400160405280600381526020017f534d4e00000000000000000000000000000000000000000000000000000000008152508160009081620000b591906200053c565b508060019081620000c791906200053c565b505050600073ffffffffffffffffffffffffffffffffffffffff168173ffffffffffffffffffffffffffffffffffffffff16036200013f5760006040517f1e4fbdf700000000000000000000000000000000000000000000000000000000815260040162000136919062000634565b60405180910390fd5b62000150816200016060201b60201c565b5060006007819055505062000651565b6000600660009054906101000a900473ffffffffffffffffffffffffffffffffffffffff16905081600660006101000a81548173ffffffffffffffffffffffffffffffffffffffff021916908373ffffffffffffffffffffffffffffffffffffffff1602179055508173ffffffffffffffffffffffffffffffffffffffff168173ffffffffffffffffffffffffffffffffffffffff167f8be0079c531659141344cd1fd0a4f28419497f9722a3daafe3b4186f6b6457e060405160405180910390a35050565b600080fd5b600073ffffffffffffffffffffffffffffffffffffffff82169050919050565b600062000258826200022b565b9050919050565b6200026a816200024b565b81146200027657600080fd5b50565b6000815190506200028a816200025f565b92915050565b600060208284031215620002a957620002a862000226565b5b6000620002b98482850162000279565b91505092915050565b600081519050919050565b7f4e487b7100000000000000000000000000000000000000000000000000000000600052604160045260246000fd5b7f4e487b7100000000000000000000000000000000000000000000000000000000600052602260045260246000fd5b600060028204905060018216806200034457607f821691505b6020821081036200035a5762000359620002fc565b5b50919050565b60008190508160005260206000209050919050565b60006020601f8301049050919050565b600082821b905092915050565b600060088302620003c47fffffffffffffffffffffffffffffffffffffffffffffffffffffffffffffffff8262000385565b620003d0868362000385565b95508019841693508086168417925050509392505050565b6000819050919050565b6000819050919050565b60006200041d620004176200041184620003e8565b620003f2565b620003e8565b9050919050565b6000819050919050565b6200043983620003fc565b62000451620004488262000424565b84845462000392565b825550505050565b600090565b6200046862000459565b620004758184846200042e565b505050565b5b818110156200049d57620004916000826200045e565b6001810190506200047b565b5050565b601f821115620004ec57620004b68162000360565b620004c18462000375565b81016020851015620004d1578190505b620004e9620004e08562000375565b8301826200047a565b50505b505050565b600082821c905092915050565b60006200051160001984600802620004f1565b1980831691505092915050565b60006200052c8383620004fe565b9150826002028217905092915050565b6200054782620002c2565b67ffffffffffffffff811115620005635762000562620002cd565b5b6200056f82546200032b565b6200057c828285620004a1565b600060209050601f831160018114620005b457600084156200059f578287015190505b620005ab85826200051e565b8655506200061b565b601f198416620005c48662000360565b60005b82811015620005ee57848901518255600182019150602085019450602081019050620005c7565b868310156200060e57848901516200060a601f891682620004fe565b8355505b6001600288020188555050505b505050505050565b6200062e816200024b565b82525050565b60006020820190506200064b600083018462000623565b92915050565b613a0c80620006616000396000f3fe608060405234801561001057600080fd5b50600436106101375760003560e01c80637b276f05116100b8578063a03902451161007c578063a03902451461034c578063a22cb4651461037c578063b88d4fde14610398578063c87b56dd146103b4578063e985e9c5146103e4578063f2fde38b1461041457610137565b80637b276f05146102945780638da5cb5b146102c45780639036c050146102e257806395d89b41146102fe57806399ba50d51461031c57610137565b80632890e0d7116100ff5780632890e0d7146101f257806342842e0e1461020e5780636352211e1461022a57806370a082311461025a578063715018a61461028a57610137565b806301ffc9a71461013c57806306fdde031461016c578063081812fc1461018a578063095ea7b3146101ba57806323b872dd146101d6575b600080fd5b610156600480360381019061015191906128b6565b610430565b60405161016391906128fe565b60405180910390f35b610174610512565b60405161018191906129a9565b60405180910390f35b6101a4600480360381019061019f9190612a01565b6105a4565b6040516101b19190612a6f565b60405180910390f35b6101d460048036038101906101cf9190612ab6565b6105c0565b005b6101f060048036038101906101eb9190612af6565b6105d6565b005b61020c60048036038101906102079190612a01565b6106d8565b005b61022860048036038101906102239190612af6565b610823565b005b610244600480360381019061023f9190612a01565b610843565b6040516102519190612a6f565b60405180910390f35b610274600480360381019061026f9190612b49565b610855565b6040516102819190612b85565b60405180910390f35b61029261090f565b005b6102ae60048036038101906102a99190612a01565b610923565b6040516102bb9190612c9f565b60405180910390f35b6102cc610c33565b6040516102d99190612a6f565b60405180910390f35b6102fc60048036038101906102f79190612cc1565b610c5d565b005b610306610f09565b60405161031391906129a9565b60405180910390f35b61033660048036038101906103319190612b49565b610f9b565b6040516103439190612e5a565b60405180910390f35b61036660048036038101906103619190612fb1565b61138d565b6040516103739190612b85565b60405180910390f35b610396600480360381019061039191906130ac565b611554565b005b6103b260048036038101906103ad919061318d565b61156a565b005b6103ce60048036038101906103c99190612a01565b611587565b6040516103db91906129a9565b60405180910390f35b6103fe60048036038101906103f99190613210565b6115f0565b60405161040b91906128fe565b60405180910390f35b61042e60048036038101906104299190612b49565b611684565b005b60007f80ac58cd000000000000000000000000000000000000000000000000000000007bffffffffffffffffffffffffffffffffffffffffffffffffffffffff1916827bffffffffffffffffffffffffffffffffffffffffffffffffffffffff191614806104fb57507f5b5e139f000000000000000000000000000000000000000000000000000000007bffffffffffffffffffffffffffffffffffffffffffffffffffffffff1916827bffffffffffffffffffffffffffffffffffffffffffffffffffffffff1916145b8061050b575061050a8261170a565b5b9050919050565b6060600080546105219061327f565b80601f016020809104026020016040519081016040528092919081815260200182805461054d9061327f565b801561059a5780601f1061056f5761010080835404028352916020019161059a565b820191906000526020600020905b81548152906001019060200180831161057d57829003601f168201915b5050505050905090565b60006105af82611774565b506105b9826117fc565b9050919050565b6105d282826105cd611839565b611841565b5050565b600073ffffffffffffffffffffffffffffffffffffffff168273ffffffffffffffffffffffffffffffffffffffff16036106485760006040517f64a0ae9200000000000000000000000000000000000000000000000000000000815260040161063f9190612a6f565b60405180910390fd5b600061065c8383610657611839565b611853565b90508373ffffffffffffffffffffffffffffffffffffffff168173ffffffffffffffffffffffffffffffffffffffff16146106d2578382826040517f64283d7b0000000000000000000000000000000000000000000000000000000081526004016106c9939291906132b0565b60405180910390fd5b50505050565b3373ffffffffffffffffffffffffffffffffffffffff166106f882610843565b73ffffffffffffffffffffffffffffffffffffffff161461074e576040517f08c379a000000000000000000000000000000000000000000000000000000000815260040161074590613333565b60405180910390fd5b61075781611a6d565b600860008281526020019081526020016000206000808201600061077b919061278b565b60018201600061078b919061278b565b60028201600090556003820160006107a3919061278b565b6004820160006101000a81549073ffffffffffffffffffffffffffffffffffffffff02191690556005820160006101000a81549073ffffffffffffffffffffffffffffffffffffffff02191690555050807f3c176691ca154a2f6fe978a2a633a33ee77dbe2902e67a75400720845a4b2ce160405160405180910390a250565b61083e8383836040518060200160405280600081525061156a565b505050565b600061084e82611774565b9050919050565b60008073ffffffffffffffffffffffffffffffffffffffff168273ffffffffffffffffffffffffffffffffffffffff16036108c85760006040517f89c62b640000000000000000000000000000000000000000000000000000000081526004016108bf9190612a6f565b60405180910390fd5b600360008373ffffffffffffffffffffffffffffffffffffffff1673ffffffffffffffffffffffffffffffffffffffff168152602001908152602001600020549050919050565b610917611af3565b6109216000611b7a565b565b61092b6127cb565b600073ffffffffffffffffffffffffffffffffffffffff1661094c83611c40565b73ffffffffffffffffffffffffffffffffffffffff16036109a2576040517f08c379a00000000000000000000000000000000000000000000000000000000081526004016109999061339f565b60405180910390fd5b600860008381526020019081526020016000206040518060c00160405290816000820180546109d09061327f565b80601f01602080910402602001604051908101604052809291908181526020018280546109fc9061327f565b8015610a495780601f10610a1e57610100808354040283529160200191610a49565b820191906000526020600020905b815481529060010190602001808311610a2c57829003601f168201915b50505050508152602001600182018054610a629061327f565b80601f0160208091040260200160405190810160405280929190818152602001828054610a8e9061327f565b8015610adb5780601f10610ab057610100808354040283529160200191610adb565b820191906000526020600020905b815481529060010190602001808311610abe57829003601f168201915b5050505050815260200160028201548152602001600382018054610afe9061327f565b80601f0160208091040260200160405190810160405280929190818152602001828054610b2a9061327f565b8015610b775780601f10610b4c57610100808354040283529160200191610b77565b820191906000526020600020905b815481529060010190602001808311610b5a57829003601f168201915b505050505081526020016004820160009054906101000a900473ffffffffffffffffffffffffffffffffffffffff1673ffffffffffffffffffffffffffffffffffffffff1673ffffffffffffffffffffffffffffffffffffffff1681526020016005820160009054906101000a900473ffffffffffffffffffffffffffffffffffffffff1673ffffffffffffffffffffffffffffffffffffffff1673ffffffffffffffffffffffffffffffffffffffff16815250509050919050565b6000600660009054906101000a900473ffffffffffffffffffffffffffffffffffffffff16905090565b600073ffffffffffffffffffffffffffffffffffffffff16610c7e83611c40565b73ffffffffffffffffffffffffffffffffffffffff1603610cd4576040517f08c379a0000000000000000000000000000000000000000000000000000000008152600401610ccb9061339f565b60405180910390fd5b3373ffffffffffffffffffffffffffffffffffffffff16610cf483610843565b73ffffffffffffffffffffffffffffffffffffffff1614610d4a576040517f08c379a0000000000000000000000000000000000000000000000000000000008152600401610d4190613431565b60405180910390fd5b600073ffffffffffffffffffffffffffffffffffffffff168173ffffffffffffffffffffffffffffffffffffffff1603610db9576040517f08c379a0000000000000000000000000000000000000000000000000000000008152600401610db0906134c3565b60405180910390fd5b60006008600084815260200190815260200160002060050160009054906101000a900473ffffffffffffffffffffffffffffffffffffffff169050806008600085815260200190815260200160002060040160006101000a81548173ffffffffffffffffffffffffffffffffffffffff021916908373ffffffffffffffffffffffffffffffffffffffff160217905550816008600085815260200190815260200160002060050160006101000a81548173ffffffffffffffffffffffffffffffffffffffff021916908373ffffffffffffffffffffffffffffffffffffffff160217905550610ea9338285611c7d565b8173ffffffffffffffffffffffffffffffffffffffff163373ffffffffffffffffffffffffffffffffffffffff16847f67043fac5fd2bf9edbb46ee495aaed7f97f91d43507d373be2b592af19b8c0a860405160405180910390a4505050565b606060018054610f189061327f565b80601f0160208091040260200160405190810160405280929190818152602001828054610f449061327f565b8015610f915780601f10610f6657610100808354040283529160200191610f91565b820191906000526020600020905b815481529060010190602001808311610f7457829003601f168201915b5050505050905090565b6060600060075490506000806000600190505b838111611013578573ffffffffffffffffffffffffffffffffffffffff16610fd582611c40565b73ffffffffffffffffffffffffffffffffffffffff160361100057600183610ffd9190613512565b92505b808061100b90613546565b915050610fae565b5060008267ffffffffffffffff8111156110305761102f612e86565b5b60405190808252806020026020018201604052801561106957816020015b6110566127cb565b81526020019060019003908161104e5790505b5090506000600190505b848111611380578673ffffffffffffffffffffffffffffffffffffffff1661109a82611c40565b73ffffffffffffffffffffffffffffffffffffffff160361136d57600860008281526020019081526020016000206040518060c00160405290816000820180546110e39061327f565b80601f016020809104026020016040519081016040528092919081815260200182805461110f9061327f565b801561115c5780601f106111315761010080835404028352916020019161115c565b820191906000526020600020905b81548152906001019060200180831161113f57829003601f168201915b505050505081526020016001820180546111759061327f565b80601f01602080910402602001604051908101604052809291908181526020018280546111a19061327f565b80156111ee5780601f106111c3576101008083540402835291602001916111ee565b820191906000526020600020905b8154815290600101906020018083116111d157829003601f168201915b50505050508152602001600282015481526020016003820180546112119061327f565b80601f016020809104026020016040519081016040528092919081815260200182805461123d9061327f565b801561128a5780601f1061125f5761010080835404028352916020019161128a565b820191906000526020600020905b81548152906001019060200180831161126d57829003601f168201915b505050505081526020016004820160009054906101000a900473ffffffffffffffffffffffffffffffffffffffff1673ffffffffffffffffffffffffffffffffffffffff1673ffffffffffffffffffffffffffffffffffffffff1681526020016005820160009054906101000a900473ffffffffffffffffffffffffffffffffffffffff1673ffffffffffffffffffffffffffffffffffffffff1673ffffffffffffffffffffffffffffffffffffffff16815250508284815181106113525761135161358e565b5b602002602001018190525060018361136a9190613512565b92505b808061137890613546565b915050611073565b5080945050505050919050565b60006001600760008282546113a29190613512565b92505081905550600060075490506113ba3382611dea565b6040518060c001604052808881526020018781526020018681526020018581526020013373ffffffffffffffffffffffffffffffffffffffff1681526020018473ffffffffffffffffffffffffffffffffffffffff1681525060086000838152602001908152602001600020600082015181600001908161143b9190613769565b5060208201518160010190816114519190613769565b506040820151816002015560608201518160030190816114719190613769565b5060808201518160040160006101000a81548173ffffffffffffffffffffffffffffffffffffffff021916908373ffffffffffffffffffffffffffffffffffffffff16021790555060a08201518160050160006101000a81548173ffffffffffffffffffffffffffffffffffffffff021916908373ffffffffffffffffffffffffffffffffffffffff1602179055509050503373ffffffffffffffffffffffffffffffffffffffff16817f0176f203df400d7bd5f1b1c9ef36c16709bf3b5d9fd35f000a6bae32393f66c360405160405180910390a38091505095945050505050565b61156661155f611839565b8383611ee3565b5050565b6115758484846105d6565b61158184848484612052565b50505050565b606061159282611774565b50600061159d612209565b905060008151116115bd57604051806020016040528060008152506115e8565b806115c784612220565b6040516020016115d8929190613877565b6040516020818303038152906040525b915050919050565b6000600560008473ffffffffffffffffffffffffffffffffffffffff1673ffffffffffffffffffffffffffffffffffffffff16815260200190815260200160002060008373ffffffffffffffffffffffffffffffffffffffff1673ffffffffffffffffffffffffffffffffffffffff16815260200190815260200160002060009054906101000a900460ff16905092915050565b61168c611af3565b600073ffffffffffffffffffffffffffffffffffffffff168173ffffffffffffffffffffffffffffffffffffffff16036116fe5760006040517f1e4fbdf70000000000000000000000000000000000000000000000000000000081526004016116f59190612a6f565b60405180910390fd5b61170781611b7a565b50565b60007f01ffc9a7000000000000000000000000000000000000000000000000000000007bffffffffffffffffffffffffffffffffffffffffffffffffffffffff1916827bffffffffffffffffffffffffffffffffffffffffffffffffffffffff1916149050919050565b60008061178083611c40565b9050600073ffffffffffffffffffffffffffffffffffffffff168173ffffffffffffffffffffffffffffffffffffffff16036117f357826040517f7e2732890000000000000000000000000000000000000000000000000000000081526004016117ea9190612b85565b60405180910390fd5b80915050919050565b60006004600083815260200190815260200160002060009054906101000a900473ffffffffffffffffffffffffffffffffffffffff169050919050565b600033905090565b61184e83838360016122ee565b505050565b60008061185f84611c40565b9050600073ffffffffffffffffffffffffffffffffffffffff168373ffffffffffffffffffffffffffffffffffffffff16146118a1576118a08184866124b3565b5b600073ffffffffffffffffffffffffffffffffffffffff168173ffffffffffffffffffffffffffffffffffffffff1614611932576118e36000856000806122ee565b6001600360008373ffffffffffffffffffffffffffffffffffffffff1673ffffffffffffffffffffffffffffffffffffffff168152602001908152602001600020600082825403925050819055505b600073ffffffffffffffffffffffffffffffffffffffff168573ffffffffffffffffffffffffffffffffffffffff16146119b5576001600360008773ffffffffffffffffffffffffffffffffffffffff1673ffffffffffffffffffffffffffffffffffffffff168152602001908152602001600020600082825401925050819055505b846002600086815260200190815260200160002060006101000a81548173ffffffffffffffffffffffffffffffffffffffff021916908373ffffffffffffffffffffffffffffffffffffffff160217905550838573ffffffffffffffffffffffffffffffffffffffff168273ffffffffffffffffffffffffffffffffffffffff167fddf252ad1be2c89b69c2b068fc378daa952ba7f163c4a11628f55a4df523b3ef60405160405180910390a4809150509392505050565b6000611a7c6000836000611853565b9050600073ffffffffffffffffffffffffffffffffffffffff168173ffffffffffffffffffffffffffffffffffffffff1603611aef57816040517f7e273289000000000000000000000000000000000000000000000000000000008152600401611ae69190612b85565b60405180910390fd5b5050565b611afb611839565b73ffffffffffffffffffffffffffffffffffffffff16611b19610c33565b73ffffffffffffffffffffffffffffffffffffffff1614611b7857611b3c611839565b6040517f118cdaa7000000000000000000000000000000000000000000000000000000008152600401611b6f9190612a6f565b60405180910390fd5b565b6000600660009054906101000a900473ffffffffffffffffffffffffffffffffffffffff16905081600660006101000a81548173ffffffffffffffffffffffffffffffffffffffff021916908373ffffffffffffffffffffffffffffffffffffffff1602179055508173ffffffffffffffffffffffffffffffffffffffff168173ffffffffffffffffffffffffffffffffffffffff167f8be0079c531659141344cd1fd0a4f28419497f9722a3daafe3b4186f6b6457e060405160405180910390a35050565b60006002600083815260200190815260200160002060009054906101000a900473ffffffffffffffffffffffffffffffffffffffff169050919050565b600073ffffffffffffffffffffffffffffffffffffffff168273ffffffffffffffffffffffffffffffffffffffff1603611cef5760006040517f64a0ae92000000000000000000000000000000000000000000000000000000008152600401611ce69190612a6f565b60405180910390fd5b6000611cfd83836000611853565b9050600073ffffffffffffffffffffffffffffffffffffffff168173ffffffffffffffffffffffffffffffffffffffff1603611d7057816040517f7e273289000000000000000000000000000000000000000000000000000000008152600401611d679190612b85565b60405180910390fd5b8373ffffffffffffffffffffffffffffffffffffffff168173ffffffffffffffffffffffffffffffffffffffff1614611de4578382826040517f64283d7b000000000000000000000000000000000000000000000000000000008152600401611ddb939291906132b0565b60405180910390fd5b50505050565b600073ffffffffffffffffffffffffffffffffffffffff168273ffffffffffffffffffffffffffffffffffffffff1603611e5c5760006040517f64a0ae92000000000000000000000000000000000000000000000000000000008152600401611e539190612a6f565b60405180910390fd5b6000611e6a83836000611853565b9050600073ffffffffffffffffffffffffffffffffffffffff168173ffffffffffffffffffffffffffffffffffffffff1614611ede5760006040517f73c6ac6e000000000000000000000000000000000000000000000000000000008152600401611ed59190612a6f565b60405180910390fd5b505050565b600073ffffffffffffffffffffffffffffffffffffffff168273ffffffffffffffffffffffffffffffffffffffff1603611f5457816040517f5b08ba18000000000000000000000000000000000000000000000000000000008152600401611f4b9190612a6f565b60405180910390fd5b80600560008573ffffffffffffffffffffffffffffffffffffffff1673ffffffffffffffffffffffffffffffffffffffff16815260200190815260200160002060008473ffffffffffffffffffffffffffffffffffffffff1673ffffffffffffffffffffffffffffffffffffffff16815260200190815260200160002060006101000a81548160ff0219169083151502179055508173ffffffffffffffffffffffffffffffffffffffff168373ffffffffffffffffffffffffffffffffffffffff167f17307eab39ab6107e8899845ad3d59bd9653f200f220920489ca2b5937696c318360405161204591906128fe565b60405180910390a3505050565b60008373ffffffffffffffffffffffffffffffffffffffff163b1115612203578273ffffffffffffffffffffffffffffffffffffffff1663150b7a02612096611839565b8685856040518563ffffffff1660e01b81526004016120b894939291906138f0565b6020604051808303816000875af19250505080156120f457506040513d601f19601f820116820180604052508101906120f19190613951565b60015b612178573d8060008114612124576040519150601f19603f3d011682016040523d82523d6000602084013e612129565b606091505b50600081510361217057836040517f64a0ae920000000000000000000000000000000000000000000000000000000081526004016121679190612a6f565b60405180910390fd5b805181602001fd5b63150b7a0260e01b7bffffffffffffffffffffffffffffffffffffffffffffffffffffffff1916817bffffffffffffffffffffffffffffffffffffffffffffffffffffffff19161461220157836040517f64a0ae920000000000000000000000000000000000000000000000000000000081526004016121f89190612a6f565b60405180910390fd5b505b50505050565b606060405180602001604052806000815250905090565b60606000600161222f84612577565b01905060008167ffffffffffffffff81111561224e5761224d612e86565b5b6040519080825280601f01601f1916602001820160405280156122805781602001600182028036833780820191505090505b509050600082602001820190505b6001156122e3578080600190039150507f3031323334353637383961626364656600000000000000000000000000000000600a86061a8153600a85816122d7576122d661397e565b5b0494506000850361228e575b819350505050919050565b80806123275750600073ffffffffffffffffffffffffffffffffffffffff168273ffffffffffffffffffffffffffffffffffffffff1614155b1561245b57600061233784611774565b9050600073ffffffffffffffffffffffffffffffffffffffff168373ffffffffffffffffffffffffffffffffffffffff16141580156123a257508273ffffffffffffffffffffffffffffffffffffffff168173ffffffffffffffffffffffffffffffffffffffff1614155b80156123b557506123b381846115f0565b155b156123f757826040517fa9fbf51f0000000000000000000000000000000000000000000000000000000081526004016123ee9190612a6f565b60405180910390fd5b811561245957838573ffffffffffffffffffffffffffffffffffffffff168273ffffffffffffffffffffffffffffffffffffffff167f8c5be1e5ebec7d5bd14f71427d1e84f3dd0314c0f7b2291e5b200ac8c7c3b92560405160405180910390a45b505b836004600085815260200190815260200160002060006101000a81548173ffffffffffffffffffffffffffffffffffffffff021916908373ffffffffffffffffffffffffffffffffffffffff16021790555050505050565b6124be8383836126ca565b61257257600073ffffffffffffffffffffffffffffffffffffffff168373ffffffffffffffffffffffffffffffffffffffff160361253357806040517f7e27328900000000000000000000000000000000000000000000000000000000815260040161252a9190612b85565b60405180910390fd5b81816040517f177e802f0000000000000000000000000000000000000000000000000000000081526004016125699291906139ad565b60405180910390fd5b505050565b600080600090507a184f03e93ff9f4daa797ed6e38ed64bf6a1f01000000000000000083106125d5577a184f03e93ff9f4daa797ed6e38ed64bf6a1f01000000000000000083816125cb576125ca61397e565b5b0492506040810190505b6d04ee2d6d415b85acef81000000008310612612576d04ee2d6d415b85acef810000000083816126085761260761397e565b5b0492506020810190505b662386f26fc10000831061264157662386f26fc1000083816126375761263661397e565b5b0492506010810190505b6305f5e100831061266a576305f5e10083816126605761265f61397e565b5b0492506008810190505b612710831061268f5761271083816126855761268461397e565b5b0492506004810190505b606483106126b257606483816126a8576126a761397e565b5b0492506002810190505b600a83106126c1576001810190505b80915050919050565b60008073ffffffffffffffffffffffffffffffffffffffff168373ffffffffffffffffffffffffffffffffffffffff161415801561278257508273ffffffffffffffffffffffffffffffffffffffff168473ffffffffffffffffffffffffffffffffffffffff161480612743575061274284846115f0565b5b8061278157508273ffffffffffffffffffffffffffffffffffffffff16612769836117fc565b73ffffffffffffffffffffffffffffffffffffffff16145b5b90509392505050565b5080546127979061327f565b6000825580601f106127a957506127c8565b601f0160209004906000526020600020908101906127c7919061282d565b5b50565b6040518060c0016040528060608152602001606081526020016000815260200160608152602001600073ffffffffffffffffffffffffffffffffffffffff168152602001600073ffffffffffffffffffffffffffffffffffffffff1681525090565b5b8082111561284657600081600090555060010161282e565b5090565b6000604051905090565b600080fd5b600080fd5b60007fffffffff0000000000000000000000000000000000000000000000000000000082169050919050565b6128938161285e565b811461289e57600080fd5b50565b6000813590506128b08161288a565b92915050565b6000602082840312156128cc576128cb612854565b5b60006128da848285016128a1565b91505092915050565b60008115159050919050565b6128f8816128e3565b82525050565b600060208201905061291360008301846128ef565b92915050565b600081519050919050565b600082825260208201905092915050565b60005b83811015612953578082015181840152602081019050612938565b60008484015250505050565b6000601f19601f8301169050919050565b600061297b82612919565b6129858185612924565b9350612995818560208601612935565b61299e8161295f565b840191505092915050565b600060208201905081810360008301526129c38184612970565b905092915050565b6000819050919050565b6129de816129cb565b81146129e957600080fd5b50565b6000813590506129fb816129d5565b92915050565b600060208284031215612a1757612a16612854565b5b6000612a25848285016129ec565b91505092915050565b600073ffffffffffffffffffffffffffffffffffffffff82169050919050565b6000612a5982612a2e565b9050919050565b612a6981612a4e565b82525050565b6000602082019050612a846000830184612a60565b92915050565b612a9381612a4e565b8114612a9e57600080fd5b50565b600081359050612ab081612a8a565b92915050565b60008060408385031215612acd57612acc612854565b5b6000612adb85828601612aa1565b9250506020612aec858286016129ec565b9150509250929050565b600080600060608486031215612b0f57612b0e612854565b5b6000612b1d86828701612aa1565b9350506020612b2e86828701612aa1565b9250506040612b3f868287016129ec565b9150509250925092565b600060208284031215612b5f57612b5e612854565b5b6000612b6d84828501612aa1565b91505092915050565b612b7f816129cb565b82525050565b6000602082019050612b9a6000830184612b76565b92915050565b600082825260208201905092915050565b6000612bbc82612919565b612bc68185612ba0565b9350612bd6818560208601612935565b612bdf8161295f565b840191505092915050565b612bf3816129cb565b82525050565b612c0281612a4e565b82525050565b600060c0830160008301518482036000860152612c258282612bb1565b91505060208301518482036020860152612c3f8282612bb1565b9150506040830151612c546040860182612bea565b5060608301518482036060860152612c6c8282612bb1565b9150506080830151612c816080860182612bf9565b5060a0830151612c9460a0860182612bf9565b508091505092915050565b60006020820190508181036000830152612cb98184612c08565b905092915050565b60008060408385031215612cd857612cd7612854565b5b6000612ce6858286016129ec565b9250506020612cf785828601612aa1565b9150509250929050565b600081519050919050565b600082825260208201905092915050565b6000819050602082019050919050565b600060c0830160008301518482036000860152612d4a8282612bb1565b91505060208301518482036020860152612d648282612bb1565b9150506040830151612d796040860182612bea565b5060608301518482036060860152612d918282612bb1565b9150506080830151612da66080860182612bf9565b5060a0830151612db960a0860182612bf9565b508091505092915050565b6000612dd08383612d2d565b905092915050565b6000602082019050919050565b6000612df082612d01565b612dfa8185612d0c565b935083602082028501612e0c85612d1d565b8060005b85811015612e485784840389528151612e298582612dc4565b9450612e3483612dd8565b925060208a01995050600181019050612e10565b50829750879550505050505092915050565b60006020820190508181036000830152612e748184612de5565b905092915050565b600080fd5b600080fd5b7f4e487b7100000000000000000000000000000000000000000000000000000000600052604160045260246000fd5b612ebe8261295f565b810181811067ffffffffffffffff82111715612edd57612edc612e86565b5b80604052505050565b6000612ef061284a565b9050612efc8282612eb5565b919050565b600067ffffffffffffffff821115612f1c57612f1b612e86565b5b612f258261295f565b9050602081019050919050565b82818337600083830152505050565b6000612f54612f4f84612f01565b612ee6565b905082815260208101848484011115612f7057612f6f612e81565b5b612f7b848285612f32565b509392505050565b600082601f830112612f9857612f97612e7c565b5b8135612fa8848260208601612f41565b91505092915050565b600080600080600060a08688031215612fcd57612fcc612854565b5b600086013567ffffffffffffffff811115612feb57612fea612859565b5b612ff788828901612f83565b955050602086013567ffffffffffffffff81111561301857613017612859565b5b61302488828901612f83565b9450506040613035888289016129ec565b935050606086013567ffffffffffffffff81111561305657613055612859565b5b61306288828901612f83565b925050608061307388828901612aa1565b9150509295509295909350565b613089816128e3565b811461309457600080fd5b50565b6000813590506130a681613080565b92915050565b600080604083850312156130c3576130c2612854565b5b60006130d185828601612aa1565b92505060206130e285828601613097565b9150509250929050565b600067ffffffffffffffff82111561310757613106612e86565b5b6131108261295f565b9050602081019050919050565b600061313061312b846130ec565b612ee6565b90508281526020810184848401111561314c5761314b612e81565b5b613157848285612f32565b509392505050565b600082601f83011261317457613173612e7c565b5b813561318484826020860161311d565b91505092915050565b600080600080608085870312156131a7576131a6612854565b5b60006131b587828801612aa1565b94505060206131c687828801612aa1565b93505060406131d7878288016129ec565b925050606085013567ffffffffffffffff8111156131f8576131f7612859565b5b6132048782880161315f565b91505092959194509250565b6000806040838503121561322757613226612854565b5b600061323585828601612aa1565b925050602061324685828601612aa1565b9150509250929050565b7f4e487b7100000000000000000000000000000000000000000000000000000000600052602260045260246000fd5b6000600282049050600182168061329757607f821691505b6020821081036132aa576132a9613250565b5b50919050565b60006060820190506132c56000830186612a60565b6132d26020830185612b76565b6132df6040830184612a60565b949350505050565b7f4f6e6c7920746865206f776e65722063616e206275726e2074686973204e4654600082015250565b600061331d602083612924565b9150613328826132e7565b602082019050919050565b6000602082019050818103600083015261334c81613310565b9050919050565b7f4e465420646f6573206e6f742065786973740000000000000000000000000000600082015250565b6000613389601283612924565b915061339482613353565b602082019050919050565b600060208201905081810360008301526133b88161337c565b9050919050565b7f4f6e6c79207468652063757272656e74206f776e65722063616e207472616e7360008201527f6665722074686973204e46540000000000000000000000000000000000000000602082015250565b600061341b602c83612924565b9150613426826133bf565b604082019050919050565b6000602082019050818103600083015261344a8161340e565b9050919050565b7f4e657874206f776e6572206d75737420626520612076616c696420616464726560008201527f7373000000000000000000000000000000000000000000000000000000000000602082015250565b60006134ad602283612924565b91506134b882613451565b604082019050919050565b600060208201905081810360008301526134dc816134a0565b9050919050565b7f4e487b7100000000000000000000000000000000000000000000000000000000600052601160045260246000fd5b600061351d826129cb565b9150613528836129cb565b92508282019050808211156135405761353f6134e3565b5b92915050565b6000613551826129cb565b91507fffffffffffffffffffffffffffffffffffffffffffffffffffffffffffffffff8203613583576135826134e3565b5b600182019050919050565b7f4e487b7100000000000000000000000000000000000000000000000000000000600052603260045260246000fd5b60008190508160005260206000209050919050565b60006020601f8301049050919050565b600082821b905092915050565b60006008830261361f7fffffffffffffffffffffffffffffffffffffffffffffffffffffffffffffffff826135e2565b61362986836135e2565b95508019841693508086168417925050509392505050565b6000819050919050565b600061366661366161365c846129cb565b613641565b6129cb565b9050919050565b6000819050919050565b6136808361364b565b61369461368c8261366d565b8484546135ef565b825550505050565b600090565b6136a961369c565b6136b4818484613677565b505050565b5b818110156136d8576136cd6000826136a1565b6001810190506136ba565b5050565b601f82111561371d576136ee816135bd565b6136f7846135d2565b81016020851015613706578190505b61371a613712856135d2565b8301826136b9565b50505b505050565b600082821c905092915050565b600061374060001984600802613722565b1980831691505092915050565b6000613759838361372f565b9150826002028217905092915050565b61377282612919565b67ffffffffffffffff81111561378b5761378a612e86565b5b613795825461327f565b6137a08282856136dc565b600060209050601f8311600181146137d357600084156137c1578287015190505b6137cb858261374d565b865550613833565b601f1984166137e1866135bd565b60005b82811015613809578489015182556001820191506020850194506020810190506137e4565b868310156138265784890151613822601f89168261372f565b8355505b6001600288020188555050505b505050505050565b600081905092915050565b600061385182612919565b61385b818561383b565b935061386b818560208601612935565b80840191505092915050565b60006138838285613846565b915061388f8284613846565b91508190509392505050565b600081519050919050565b600082825260208201905092915050565b60006138c28261389b565b6138cc81856138a6565b93506138dc818560208601612935565b6138e58161295f565b840191505092915050565b60006080820190506139056000830187612a60565b6139126020830186612a60565b61391f6040830185612b76565b818103606083015261393181846138b7565b905095945050505050565b60008151905061394b8161288a565b92915050565b60006020828403121561396757613966612854565b5b60006139758482850161393c565b91505092915050565b7f4e487b7100000000000000000000000000000000000000000000000000000000600052601260045260246000fd5b60006040820190506139c26000830185612a60565b6139cf6020830184612b76565b939250505056fea2646970667358221220a3a7307bbb162983e2ecb81809ce1a5143f5f4c5f9a0b99e164f9d829b93854e64736f6c63430008180033",
  "linkReferences": {},
  "deployedLinkReferences": {}
}