{
  "_format": "hh-sol-artifact-1",
  "contractName": "SupplyMateNFT",
  "sourceName": "contracts/SupplyMate.sol",
  "abi": [
    {
      "inputs": [
        {
          "internalType": "address",
          "name": "initialOwner",
          "type": "address"
        }
      ],
      "stateMutability": "nonpayable",
      "type": "constructor"
    },
    {
      "inputs": [
        {
          "internalType": "address",
          "name": "sender",
          "type": "address"
        },
        {
          "internalType": "uint256",
          "name": "tokenId",
          "type": "uint256"
        },
        {
          "internalType": "address",
          "name": "owner",
          "type": "address"
        }
      ],
      "name": "ERC721IncorrectOwner",
      "type": "error"
    },
    {
      "inputs": [
        {
          "internalType": "address",
          "name": "operator",
          "type": "address"
        },
        {
          "internalType": "uint256",
          "name": "tokenId",
          "type": "uint256"
        }
      ],
      "name": "ERC721InsufficientApproval",
      "type": "error"
    },
    {
      "inputs": [
        {
          "internalType": "address",
          "name": "approver",
          "type": "address"
        }
      ],
      "name": "ERC721InvalidApprover",
      "type": "error"
    },
    {
      "inputs": [
        {
          "internalType": "address",
          "name": "operator",
          "type": "address"
        }
      ],
      "name": "ERC721InvalidOperator",
      "type": "error"
    },
    {
      "inputs": [
        {
          "internalType": "address",
          "name": "owner",
          "type": "address"
        }
      ],
      "name": "ERC721InvalidOwner",
      "type": "error"
    },
    {
      "inputs": [
        {
          "internalType": "address",
          "name": "receiver",
          "type": "address"
        }
      ],
      "name": "ERC721InvalidReceiver",
      "type": "error"
    },
    {
      "inputs": [
        {
          "internalType": "address",
          "name": "sender",
          "type": "address"
        }
      ],
      "name": "ERC721InvalidSender",
      "type": "error"
    },
    {
      "inputs": [
        {
          "internalType": "uint256",
          "name": "tokenId",
          "type": "uint256"
        }
      ],
      "name": "ERC721NonexistentToken",
      "type": "error"
    },
    {
      "inputs": [
        {
          "internalType": "address",
          "name": "owner",
          "type": "address"
        }
      ],
      "name": "OwnableInvalidOwner",
      "type": "error"
    },
    {
      "inputs": [
        {
          "internalType": "address",
          "name": "account",
          "type": "address"
        }
      ],
      "name": "OwnableUnauthorizedAccount",
      "type": "error"
    },
    {
      "anonymous": false,
      "inputs": [
        {
          "indexed": true,
          "internalType": "address",
          "name": "owner",
          "type": "address"
        },
        {
          "indexed": true,
          "internalType": "address",
          "name": "approved",
          "type": "address"
        },
        {
          "indexed": true,
          "internalType": "uint256",
          "name": "tokenId",
          "type": "uint256"
        }
      ],
      "name": "Approval",
      "type": "event"
    },
    {
      "anonymous": false,
      "inputs": [
        {
          "indexed": true,
          "internalType": "address",
          "name": "owner",
          "type": "address"
        },
        {
          "indexed": true,
          "internalType": "address",
          "name": "operator",
          "type": "address"
        },
        {
          "indexed": false,
          "internalType": "bool",
          "name": "approved",
          "type": "bool"
        }
      ],
      "name": "ApprovalForAll",
      "type": "event"
    },
    {
      "anonymous": false,
      "inputs": [
        {
          "indexed": true,
          "internalType": "uint256",
          "name": "tokenId",
          "type": "uint256"
        }
      ],
      "name": "NFTBurned",
      "type": "event"
    },
    {
      "anonymous": false,
      "inputs": [
        {
          "indexed": true,
          "internalType": "uint256",
          "name": "tokenId",
          "type": "uint256"
        }
      ],
      "name": "NFTDetailsUpdated",
      "type": "event"
    },
    {
      "anonymous": false,
      "inputs": [
        {
          "indexed": true,
          "internalType": "uint256",
          "name": "tokenId",
          "type": "uint256"
        },
        {
          "indexed": true,
          "internalType": "address",
          "name": "owner",
          "type": "address"
        }
      ],
      "name": "NFTMinted",
      "type": "event"
    },
    {
      "anonymous": false,
      "inputs": [
        {
          "indexed": true,
          "internalType": "uint256",
          "name": "tokenId",
          "type": "uint256"
        },
        {
          "indexed": true,
          "internalType": "address",
          "name": "from",
          "type": "address"
        },
        {
          "indexed": true,
          "internalType": "address",
          "name": "to",
          "type": "address"
        }
      ],
      "name": "NFTTransferred",
      "type": "event"
    },
    {
      "anonymous": false,
      "inputs": [
        {
          "indexed": true,
          "internalType": "address",
          "name": "previousOwner",
          "type": "address"
        },
        {
          "indexed": true,
          "internalType": "address",
          "name": "newOwner",
          "type": "address"
        }
      ],
      "name": "OwnershipTransferred",
      "type": "event"
    },
    {
      "anonymous": false,
      "inputs": [
        {
          "indexed": true,
          "internalType": "address",
          "name": "from",
          "type": "address"
        },
        {
          "indexed": true,
          "internalType": "address",
          "name": "to",
          "type": "address"
        },
        {
          "indexed": true,
          "internalType": "uint256",
          "name": "tokenId",
          "type": "uint256"
        }
      ],
      "name": "Transfer",
      "type": "event"
    },
    {
      "inputs": [
        {
          "internalType": "address",
          "name": "to",
          "type": "address"
        },
        {
          "internalType": "uint256",
          "name": "tokenId",
          "type": "uint256"
        }
      ],
      "name": "approve",
      "outputs": [],
      "stateMutability": "nonpayable",
      "type": "function"
    },
    {
      "inputs": [
        {
          "internalType": "address",
          "name": "owner",
          "type": "address"
        }
      ],
      "name": "balanceOf",
      "outputs": [
        {
          "internalType": "uint256",
          "name": "",
          "type": "uint256"
        }
      ],
      "stateMutability": "view",
      "type": "function"
    },
    {
      "inputs": [
        {
          "internalType": "uint256",
          "name": "_tokenId",
          "type": "uint256"
        }
      ],
      "name": "burnNFT",
      "outputs": [],
      "stateMutability": "nonpayable",
      "type": "function"
    },
    {
      "inputs": [
        {
          "internalType": "uint256",
          "name": "tokenId",
          "type": "uint256"
        }
      ],
      "name": "getApproved",
      "outputs": [
        {
          "internalType": "address",
          "name": "",
          "type": "address"
        }
      ],
      "stateMutability": "view",
      "type": "function"
    },
    {
      "inputs": [
        {
          "internalType": "address",
          "name": "owner",
          "type": "address"
        },
        {
          "internalType": "address",
          "name": "operator",
          "type": "address"
        }
      ],
      "name": "isApprovedForAll",
      "outputs": [
        {
          "internalType": "bool",
          "name": "",
          "type": "bool"
        }
      ],
      "stateMutability": "view",
      "type": "function"
    },
    {
      "inputs": [
        {
          "internalType": "string",
          "name": "_title",
          "type": "string"
        },
        {
          "internalType": "string",
          "name": "_description",
          "type": "string"
        },
        {
          "internalType": "uint256",
          "name": "_quantity",
          "type": "uint256"
        },
        {
          "internalType": "string",
          "name": "_location",
          "type": "string"
        },
        {
          "internalType": "address",
          "name": "_nextOwner",
          "type": "address"
        }
      ],
      "name": "mintNFT",
      "outputs": [
        {
          "internalType": "uint256",
          "name": "",
          "type": "uint256"
        }
      ],
      "stateMutability": "nonpayable",
      "type": "function"
    },
    {
      "inputs": [],
      "name": "name",
      "outputs": [
        {
          "internalType": "string",
          "name": "",
          "type": "string"
        }
      ],
      "stateMutability": "view",
      "type": "function"
    },
    {
      "inputs": [],
      "name": "owner",
      "outputs": [
        {
          "internalType": "address",
          "name": "",
          "type": "address"
        }
      ],
      "stateMutability": "view",
      "type": "function"
    },
    {
      "inputs": [
        {
          "internalType": "uint256",
          "name": "tokenId",
          "type": "uint256"
        }
      ],
      "name": "ownerOf",
      "outputs": [
        {
          "internalType": "address",
          "name": "",
          "type": "address"
        }
      ],
      "stateMutability": "view",
      "type": "function"
    },
    {
      "inputs": [],
      "name": "renounceOwnership",
      "outputs": [],
      "stateMutability": "nonpayable",
      "type": "function"
    },
    {
      "inputs": [
        {
          "internalType": "address",
          "name": "from",
          "type": "address"
        },
        {
          "internalType": "address",
          "name": "to",
          "type": "address"
        },
        {
          "internalType": "uint256",
          "name": "tokenId",
          "type": "uint256"
        }
      ],
      "name": "safeTransferFrom",
      "outputs": [],
      "stateMutability": "nonpayable",
      "type": "function"
    },
    {
      "inputs": [
        {
          "internalType": "address",
          "name": "from",
          "type": "address"
        },
        {
          "internalType": "address",
          "name": "to",
          "type": "address"
        },
        {
          "internalType": "uint256",
          "name": "tokenId",
          "type": "uint256"
        },
        {
          "internalType": "bytes",
          "name": "data",
          "type": "bytes"
        }
      ],
      "name": "safeTransferFrom",
      "outputs": [],
      "stateMutability": "nonpayable",
      "type": "function"
    },
    {
      "inputs": [
        {
          "internalType": "address",
          "name": "operator",
          "type": "address"
        },
        {
          "internalType": "bool",
          "name": "approved",
          "type": "bool"
        }
      ],
      "name": "setApprovalForAll",
      "outputs": [],
      "stateMutability": "nonpayable",
      "type": "function"
    },
    {
      "inputs": [
        {
          "internalType": "bytes4",
          "name": "interfaceId",
          "type": "bytes4"
        }
      ],
      "name": "supportsInterface",
      "outputs": [
        {
          "internalType": "bool",
          "name": "",
          "type": "bool"
        }
      ],
      "stateMutability": "view",
      "type": "function"
    },
    {
      "inputs": [],
      "name": "symbol",
      "outputs": [
        {
          "internalType": "string",
          "name": "",
          "type": "string"
        }
      ],
      "stateMutability": "view",
      "type": "function"
    },
    {
      "inputs": [
        {
          "internalType": "uint256",
          "name": "tokenId",
          "type": "uint256"
        }
      ],
      "name": "tokenURI",
      "outputs": [
        {
          "internalType": "string",
          "name": "",
          "type": "string"
        }
      ],
      "stateMutability": "view",
      "type": "function"
    },
    {
      "inputs": [
        {
          "internalType": "address",
          "name": "from",
          "type": "address"
        },
        {
          "internalType": "address",
          "name": "to",
          "type": "address"
        },
        {
          "internalType": "uint256",
          "name": "tokenId",
          "type": "uint256"
        }
      ],
      "name": "transferFrom",
      "outputs": [],
      "stateMutability": "nonpayable",
      "type": "function"
    },
    {
      "inputs": [
        {
          "internalType": "address",
          "name": "_to",
          "type": "address"
        },
        {
          "internalType": "uint256",
          "name": "_tokenId",
          "type": "uint256"
        }
      ],
      "name": "transferNFT",
      "outputs": [],
      "stateMutability": "nonpayable",
      "type": "function"
    },
    {
      "inputs": [
        {
          "internalType": "address",
          "name": "newOwner",
          "type": "address"
        }
      ],
      "name": "transferOwnership",
      "outputs": [],
      "stateMutability": "nonpayable",
      "type": "function"
    },
    {
      "inputs": [
        {
          "internalType": "uint256",
          "name": "_tokenId",
          "type": "uint256"
        },
        {
          "internalType": "string",
          "name": "_newDescription",
          "type": "string"
        },
        {
          "internalType": "string",
          "name": "_newLocation",
          "type": "string"
        },
        {
          "internalType": "address",
          "name": "_newNextOwner",
          "type": "address"
        }
      ],
      "name": "updateNFTDetails",
      "outputs": [],
      "stateMutability": "nonpayable",
      "type": "function"
    },
    {
      "inputs": [
        {
          "internalType": "uint256",
          "name": "_tokenId",
          "type": "uint256"
        }
      ],
      "name": "viewNFT",
      "outputs": [
        {
          "components": [
            {
              "internalType": "string",
              "name": "title",
              "type": "string"
            },
            {
              "internalType": "string",
              "name": "description",
              "type": "string"
            },
            {
              "internalType": "uint256",
              "name": "quantity",
              "type": "uint256"
            },
            {
              "internalType": "string",
              "name": "location",
              "type": "string"
            },
            {
              "internalType": "address",
              "name": "currentOwner",
              "type": "address"
            },
            {
              "internalType": "address",
              "name": "nextOwner",
              "type": "address"
            }
          ],
          "internalType": "struct SupplyMateNFT.NFTDetails",
          "name": "",
          "type": "tuple"
        }
      ],
      "stateMutability": "view",
      "type": "function"
    },
    {
      "inputs": [
        {
          "internalType": "address",
          "name": "_owner",
          "type": "address"
        }
      ],
      "name": "viewNFTsByOwner",
      "outputs": [
        {
          "components": [
            {
              "internalType": "string",
              "name": "title",
              "type": "string"
            },
            {
              "internalType": "string",
              "name": "description",
              "type": "string"
            },
            {
              "internalType": "uint256",
              "name": "quantity",
              "type": "uint256"
            },
            {
              "internalType": "string",
              "name": "location",
              "type": "string"
            },
            {
              "internalType": "address",
              "name": "currentOwner",
              "type": "address"
            },
            {
              "internalType": "address",
              "name": "nextOwner",
              "type": "address"
            }
          ],
          "internalType": "struct SupplyMateNFT.NFTDetails[]",
          "name": "",
          "type": "tuple[]"
        }
      ],
      "stateMutability": "view",
      "type": "function"
    }
  ],
  "bytecode": "0x60806040523480156200001157600080fd5b506040516200417138038062004171833981810160405281019062000037919062000290565b806040518060400160405280600d81526020017f537570706c794d6174654e4654000000000000000000000000000000000000008152506040518060400160405280600381526020017f534d4e00000000000000000000000000000000000000000000000000000000008152508160009081620000b591906200053c565b508060019081620000c791906200053c565b505050600073ffffffffffffffffffffffffffffffffffffffff168173ffffffffffffffffffffffffffffffffffffffff16036200013f5760006040517f1e4fbdf700000000000000000000000000000000000000000000000000000000815260040162000136919062000634565b60405180910390fd5b62000150816200016060201b60201c565b5060006007819055505062000651565b6000600660009054906101000a900473ffffffffffffffffffffffffffffffffffffffff16905081600660006101000a81548173ffffffffffffffffffffffffffffffffffffffff021916908373ffffffffffffffffffffffffffffffffffffffff1602179055508173ffffffffffffffffffffffffffffffffffffffff168173ffffffffffffffffffffffffffffffffffffffff167f8be0079c531659141344cd1fd0a4f28419497f9722a3daafe3b4186f6b6457e060405160405180910390a35050565b600080fd5b600073ffffffffffffffffffffffffffffffffffffffff82169050919050565b600062000258826200022b565b9050919050565b6200026a816200024b565b81146200027657600080fd5b50565b6000815190506200028a816200025f565b92915050565b600060208284031215620002a957620002a862000226565b5b6000620002b98482850162000279565b91505092915050565b600081519050919050565b7f4e487b7100000000000000000000000000000000000000000000000000000000600052604160045260246000fd5b7f4e487b7100000000000000000000000000000000000000000000000000000000600052602260045260246000fd5b600060028204905060018216806200034457607f821691505b6020821081036200035a5762000359620002fc565b5b50919050565b60008190508160005260206000209050919050565b60006020601f8301049050919050565b600082821b905092915050565b600060088302620003c47fffffffffffffffffffffffffffffffffffffffffffffffffffffffffffffffff8262000385565b620003d0868362000385565b95508019841693508086168417925050509392505050565b6000819050919050565b6000819050919050565b60006200041d620004176200041184620003e8565b620003f2565b620003e8565b9050919050565b6000819050919050565b6200043983620003fc565b62000451620004488262000424565b84845462000392565b825550505050565b600090565b6200046862000459565b620004758184846200042e565b505050565b5b818110156200049d57620004916000826200045e565b6001810190506200047b565b5050565b601f821115620004ec57620004b68162000360565b620004c18462000375565b81016020851015620004d1578190505b620004e9620004e08562000375565b8301826200047a565b50505b505050565b600082821c905092915050565b60006200051160001984600802620004f1565b1980831691505092915050565b60006200052c8383620004fe565b9150826002028217905092915050565b6200054782620002c2565b67ffffffffffffffff811115620005635762000562620002cd565b5b6200056f82546200032b565b6200057c828285620004a1565b600060209050601f831160018114620005b457600084156200059f578287015190505b620005ab85826200051e565b8655506200061b565b601f198416620005c48662000360565b60005b82811015620005ee57848901518255600182019150602085019450602081019050620005c7565b868310156200060e57848901516200060a601f891682620004fe565b8355505b6001600288020188555050505b505050505050565b6200062e816200024b565b82525050565b60006020820190506200064b600083018462000623565b92915050565b613b1080620006616000396000f3fe608060405234801561001057600080fd5b50600436106101425760003560e01c80638da5cb5b116100b8578063a22cb4651161007c578063a22cb46514610387578063b88d4fde146103a3578063c87b56dd146103bf578063d7f91ef0146103ef578063e985e9c51461040b578063f2fde38b1461043b57610142565b80638da5cb5b146102cf57806394ab67fe146102ed57806395d89b411461030957806399ba50d514610327578063a03902451461035757610142565b80632890e0d71161010a5780632890e0d7146101fd57806342842e0e146102195780636352211e1461023557806370a0823114610265578063715018a6146102955780637b276f051461029f57610142565b806301ffc9a71461014757806306fdde0314610177578063081812fc14610195578063095ea7b3146101c557806323b872dd146101e1575b600080fd5b610161600480360381019061015c919061295b565b610457565b60405161016e91906129a3565b60405180910390f35b61017f610539565b60405161018c9190612a4e565b60405180910390f35b6101af60048036038101906101aa9190612aa6565b6105cb565b6040516101bc9190612b14565b60405180910390f35b6101df60048036038101906101da9190612b5b565b6105e7565b005b6101fb60048036038101906101f69190612b9b565b6105fd565b005b61021760048036038101906102129190612aa6565b6106ff565b005b610233600480360381019061022e9190612b9b565b61084a565b005b61024f600480360381019061024a9190612aa6565b61086a565b60405161025c9190612b14565b60405180910390f35b61027f600480360381019061027a9190612bee565b61087c565b60405161028c9190612c2a565b60405180910390f35b61029d610936565b005b6102b960048036038101906102b49190612aa6565b61094a565b6040516102c69190612d44565b60405180910390f35b6102d7610c5a565b6040516102e49190612b14565b60405180910390f35b61030760048036038101906103029190612b5b565b610c84565b005b610311610e86565b60405161031e9190612a4e565b60405180910390f35b610341600480360381019061033c9190612bee565b610f18565b60405161034e9190612ebf565b60405180910390f35b610371600480360381019061036c9190613016565b61130a565b60405161037e9190612c2a565b60405180910390f35b6103a1600480360381019061039c9190613111565b6114d1565b005b6103bd60048036038101906103b891906131f2565b6114e7565b005b6103d960048036038101906103d49190612aa6565b611504565b6040516103e69190612a4e565b60405180910390f35b61040960048036038101906104049190613275565b61156d565b005b61042560048036038101906104209190613314565b611695565b60405161043291906129a3565b60405180910390f35b61045560048036038101906104509190612bee565b611729565b005b60007f80ac58cd000000000000000000000000000000000000000000000000000000007bffffffffffffffffffffffffffffffffffffffffffffffffffffffff1916827bffffffffffffffffffffffffffffffffffffffffffffffffffffffff1916148061052257507f5b5e139f000000000000000000000000000000000000000000000000000000007bffffffffffffffffffffffffffffffffffffffffffffffffffffffff1916827bffffffffffffffffffffffffffffffffffffffffffffffffffffffff1916145b806105325750610531826117af565b5b9050919050565b60606000805461054890613383565b80601f016020809104026020016040519081016040528092919081815260200182805461057490613383565b80156105c15780601f10610596576101008083540402835291602001916105c1565b820191906000526020600020905b8154815290600101906020018083116105a457829003601f168201915b5050505050905090565b60006105d682611819565b506105e0826118a1565b9050919050565b6105f982826105f46118de565b6118e6565b5050565b600073ffffffffffffffffffffffffffffffffffffffff168273ffffffffffffffffffffffffffffffffffffffff160361066f5760006040517f64a0ae920000000000000000000000000000000000000000000000000000000081526004016106669190612b14565b60405180910390fd5b6000610683838361067e6118de565b6118f8565b90508373ffffffffffffffffffffffffffffffffffffffff168173ffffffffffffffffffffffffffffffffffffffff16146106f9578382826040517f64283d7b0000000000000000000000000000000000000000000000000000000081526004016106f0939291906133b4565b60405180910390fd5b50505050565b3373ffffffffffffffffffffffffffffffffffffffff1661071f8261086a565b73ffffffffffffffffffffffffffffffffffffffff1614610775576040517f08c379a000000000000000000000000000000000000000000000000000000000815260040161076c90613437565b60405180910390fd5b61077e81611b12565b60086000828152602001908152602001600020600080820160006107a29190612830565b6001820160006107b29190612830565b60028201600090556003820160006107ca9190612830565b6004820160006101000a81549073ffffffffffffffffffffffffffffffffffffffff02191690556005820160006101000a81549073ffffffffffffffffffffffffffffffffffffffff02191690555050807f3c176691ca154a2f6fe978a2a633a33ee77dbe2902e67a75400720845a4b2ce160405160405180910390a250565b610865838383604051806020016040528060008152506114e7565b505050565b600061087582611819565b9050919050565b60008073ffffffffffffffffffffffffffffffffffffffff168273ffffffffffffffffffffffffffffffffffffffff16036108ef5760006040517f89c62b640000000000000000000000000000000000000000000000000000000081526004016108e69190612b14565b60405180910390fd5b600360008373ffffffffffffffffffffffffffffffffffffffff1673ffffffffffffffffffffffffffffffffffffffff168152602001908152602001600020549050919050565b61093e611b98565b6109486000611c1f565b565b610952612870565b600073ffffffffffffffffffffffffffffffffffffffff1661097383611ce5565b73ffffffffffffffffffffffffffffffffffffffff16036109c9576040517f08c379a00000000000000000000000000000000000000000000000000000000081526004016109c0906134a3565b60405180910390fd5b600860008381526020019081526020016000206040518060c00160405290816000820180546109f790613383565b80601f0160208091040260200160405190810160405280929190818152602001828054610a2390613383565b8015610a705780601f10610a4557610100808354040283529160200191610a70565b820191906000526020600020905b815481529060010190602001808311610a5357829003601f168201915b50505050508152602001600182018054610a8990613383565b80601f0160208091040260200160405190810160405280929190818152602001828054610ab590613383565b8015610b025780601f10610ad757610100808354040283529160200191610b02565b820191906000526020600020905b815481529060010190602001808311610ae557829003601f168201915b5050505050815260200160028201548152602001600382018054610b2590613383565b80601f0160208091040260200160405190810160405280929190818152602001828054610b5190613383565b8015610b9e5780601f10610b7357610100808354040283529160200191610b9e565b820191906000526020600020905b815481529060010190602001808311610b8157829003601f168201915b505050505081526020016004820160009054906101000a900473ffffffffffffffffffffffffffffffffffffffff1673ffffffffffffffffffffffffffffffffffffffff1673ffffffffffffffffffffffffffffffffffffffff1681526020016005820160009054906101000a900473ffffffffffffffffffffffffffffffffffffffff1673ffffffffffffffffffffffffffffffffffffffff1673ffffffffffffffffffffffffffffffffffffffff16815250509050919050565b6000600660009054906101000a900473ffffffffffffffffffffffffffffffffffffffff16905090565b600073ffffffffffffffffffffffffffffffffffffffff16610ca582611ce5565b73ffffffffffffffffffffffffffffffffffffffff1603610cfb576040517f08c379a0000000000000000000000000000000000000000000000000000000008152600401610cf2906134a3565b60405180910390fd5b3373ffffffffffffffffffffffffffffffffffffffff16610d1b8261086a565b73ffffffffffffffffffffffffffffffffffffffff1614610d71576040517f08c379a0000000000000000000000000000000000000000000000000000000008152600401610d6890613535565b60405180910390fd5b610d7c338383611d22565b816008600083815260200190815260200160002060040160006101000a81548173ffffffffffffffffffffffffffffffffffffffff021916908373ffffffffffffffffffffffffffffffffffffffff16021790555060006008600083815260200190815260200160002060050160006101000a81548173ffffffffffffffffffffffffffffffffffffffff021916908373ffffffffffffffffffffffffffffffffffffffff1602179055508173ffffffffffffffffffffffffffffffffffffffff163373ffffffffffffffffffffffffffffffffffffffff16827f67043fac5fd2bf9edbb46ee495aaed7f97f91d43507d373be2b592af19b8c0a860405160405180910390a45050565b606060018054610e9590613383565b80601f0160208091040260200160405190810160405280929190818152602001828054610ec190613383565b8015610f0e5780601f10610ee357610100808354040283529160200191610f0e565b820191906000526020600020905b815481529060010190602001808311610ef157829003601f168201915b5050505050905090565b6060600060075490506000806000600190505b838111610f90578573ffffffffffffffffffffffffffffffffffffffff16610f5282611ce5565b73ffffffffffffffffffffffffffffffffffffffff1603610f7d57600183610f7a9190613584565b92505b8080610f88906135b8565b915050610f2b565b5060008267ffffffffffffffff811115610fad57610fac612eeb565b5b604051908082528060200260200182016040528015610fe657816020015b610fd3612870565b815260200190600190039081610fcb5790505b5090506000600190505b8481116112fd578673ffffffffffffffffffffffffffffffffffffffff1661101782611ce5565b73ffffffffffffffffffffffffffffffffffffffff16036112ea57600860008281526020019081526020016000206040518060c001604052908160008201805461106090613383565b80601f016020809104026020016040519081016040528092919081815260200182805461108c90613383565b80156110d95780601f106110ae576101008083540402835291602001916110d9565b820191906000526020600020905b8154815290600101906020018083116110bc57829003601f168201915b505050505081526020016001820180546110f290613383565b80601f016020809104026020016040519081016040528092919081815260200182805461111e90613383565b801561116b5780601f106111405761010080835404028352916020019161116b565b820191906000526020600020905b81548152906001019060200180831161114e57829003601f168201915b505050505081526020016002820154815260200160038201805461118e90613383565b80601f01602080910402602001604051908101604052809291908181526020018280546111ba90613383565b80156112075780601f106111dc57610100808354040283529160200191611207565b820191906000526020600020905b8154815290600101906020018083116111ea57829003601f168201915b505050505081526020016004820160009054906101000a900473ffffffffffffffffffffffffffffffffffffffff1673ffffffffffffffffffffffffffffffffffffffff1673ffffffffffffffffffffffffffffffffffffffff1681526020016005820160009054906101000a900473ffffffffffffffffffffffffffffffffffffffff1673ffffffffffffffffffffffffffffffffffffffff1673ffffffffffffffffffffffffffffffffffffffff16815250508284815181106112cf576112ce613600565b5b60200260200101819052506001836112e79190613584565b92505b80806112f5906135b8565b915050610ff0565b5080945050505050919050565b600060016007600082825461131f9190613584565b92505081905550600060075490506113373382611e8f565b6040518060c001604052808881526020018781526020018681526020018581526020013373ffffffffffffffffffffffffffffffffffffffff1681526020018473ffffffffffffffffffffffffffffffffffffffff168152506008600083815260200190815260200160002060008201518160000190816113b891906137db565b5060208201518160010190816113ce91906137db565b506040820151816002015560608201518160030190816113ee91906137db565b5060808201518160040160006101000a81548173ffffffffffffffffffffffffffffffffffffffff021916908373ffffffffffffffffffffffffffffffffffffffff16021790555060a08201518160050160006101000a81548173ffffffffffffffffffffffffffffffffffffffff021916908373ffffffffffffffffffffffffffffffffffffffff1602179055509050503373ffffffffffffffffffffffffffffffffffffffff16817f0176f203df400d7bd5f1b1c9ef36c16709bf3b5d9fd35f000a6bae32393f66c360405160405180910390a38091505095945050505050565b6114e36114dc6118de565b8383611f88565b5050565b6114f28484846105fd565b6114fe848484846120f7565b50505050565b606061150f82611819565b50600061151a6122ae565b9050600081511161153a5760405180602001604052806000815250611565565b80611544846122c5565b6040516020016115559291906138e9565b6040516020818303038152906040525b915050919050565b3373ffffffffffffffffffffffffffffffffffffffff1661158d8561086a565b73ffffffffffffffffffffffffffffffffffffffff16146115e3576040517f08c379a00000000000000000000000000000000000000000000000000000000081526004016115da9061397f565b60405180910390fd5b60006008600086815260200190815260200160002090508381600101908161160b91906137db565b508281600301908161161d91906137db565b50818160050160006101000a81548173ffffffffffffffffffffffffffffffffffffffff021916908373ffffffffffffffffffffffffffffffffffffffff160217905550847f3ddd95a1808002a13f3ea75fd1971c31cec56d1155a50e96f1bc4b7093deb21f60405160405180910390a25050505050565b6000600560008473ffffffffffffffffffffffffffffffffffffffff1673ffffffffffffffffffffffffffffffffffffffff16815260200190815260200160002060008373ffffffffffffffffffffffffffffffffffffffff1673ffffffffffffffffffffffffffffffffffffffff16815260200190815260200160002060009054906101000a900460ff16905092915050565b611731611b98565b600073ffffffffffffffffffffffffffffffffffffffff168173ffffffffffffffffffffffffffffffffffffffff16036117a35760006040517f1e4fbdf700000000000000000000000000000000000000000000000000000000815260040161179a9190612b14565b60405180910390fd5b6117ac81611c1f565b50565b60007f01ffc9a7000000000000000000000000000000000000000000000000000000007bffffffffffffffffffffffffffffffffffffffffffffffffffffffff1916827bffffffffffffffffffffffffffffffffffffffffffffffffffffffff1916149050919050565b60008061182583611ce5565b9050600073ffffffffffffffffffffffffffffffffffffffff168173ffffffffffffffffffffffffffffffffffffffff160361189857826040517f7e27328900000000000000000000000000000000000000000000000000000000815260040161188f9190612c2a565b60405180910390fd5b80915050919050565b60006004600083815260200190815260200160002060009054906101000a900473ffffffffffffffffffffffffffffffffffffffff169050919050565b600033905090565b6118f38383836001612393565b505050565b60008061190484611ce5565b9050600073ffffffffffffffffffffffffffffffffffffffff168373ffffffffffffffffffffffffffffffffffffffff161461194657611945818486612558565b5b600073ffffffffffffffffffffffffffffffffffffffff168173ffffffffffffffffffffffffffffffffffffffff16146119d757611988600085600080612393565b6001600360008373ffffffffffffffffffffffffffffffffffffffff1673ffffffffffffffffffffffffffffffffffffffff168152602001908152602001600020600082825403925050819055505b600073ffffffffffffffffffffffffffffffffffffffff168573ffffffffffffffffffffffffffffffffffffffff1614611a5a576001600360008773ffffffffffffffffffffffffffffffffffffffff1673ffffffffffffffffffffffffffffffffffffffff168152602001908152602001600020600082825401925050819055505b846002600086815260200190815260200160002060006101000a81548173ffffffffffffffffffffffffffffffffffffffff021916908373ffffffffffffffffffffffffffffffffffffffff160217905550838573ffffffffffffffffffffffffffffffffffffffff168273ffffffffffffffffffffffffffffffffffffffff167fddf252ad1be2c89b69c2b068fc378daa952ba7f163c4a11628f55a4df523b3ef60405160405180910390a4809150509392505050565b6000611b2160008360006118f8565b9050600073ffffffffffffffffffffffffffffffffffffffff168173ffffffffffffffffffffffffffffffffffffffff1603611b9457816040517f7e273289000000000000000000000000000000000000000000000000000000008152600401611b8b9190612c2a565b60405180910390fd5b5050565b611ba06118de565b73ffffffffffffffffffffffffffffffffffffffff16611bbe610c5a565b73ffffffffffffffffffffffffffffffffffffffff1614611c1d57611be16118de565b6040517f118cdaa7000000000000000000000000000000000000000000000000000000008152600401611c149190612b14565b60405180910390fd5b565b6000600660009054906101000a900473ffffffffffffffffffffffffffffffffffffffff16905081600660006101000a81548173ffffffffffffffffffffffffffffffffffffffff021916908373ffffffffffffffffffffffffffffffffffffffff1602179055508173ffffffffffffffffffffffffffffffffffffffff168173ffffffffffffffffffffffffffffffffffffffff167f8be0079c531659141344cd1fd0a4f28419497f9722a3daafe3b4186f6b6457e060405160405180910390a35050565b60006002600083815260200190815260200160002060009054906101000a900473ffffffffffffffffffffffffffffffffffffffff169050919050565b600073ffffffffffffffffffffffffffffffffffffffff168273ffffffffffffffffffffffffffffffffffffffff1603611d945760006040517f64a0ae92000000000000000000000000000000000000000000000000000000008152600401611d8b9190612b14565b60405180910390fd5b6000611da2838360006118f8565b9050600073ffffffffffffffffffffffffffffffffffffffff168173ffffffffffffffffffffffffffffffffffffffff1603611e1557816040517f7e273289000000000000000000000000000000000000000000000000000000008152600401611e0c9190612c2a565b60405180910390fd5b8373ffffffffffffffffffffffffffffffffffffffff168173ffffffffffffffffffffffffffffffffffffffff1614611e89578382826040517f64283d7b000000000000000000000000000000000000000000000000000000008152600401611e80939291906133b4565b60405180910390fd5b50505050565b600073ffffffffffffffffffffffffffffffffffffffff168273ffffffffffffffffffffffffffffffffffffffff1603611f015760006040517f64a0ae92000000000000000000000000000000000000000000000000000000008152600401611ef89190612b14565b60405180910390fd5b6000611f0f838360006118f8565b9050600073ffffffffffffffffffffffffffffffffffffffff168173ffffffffffffffffffffffffffffffffffffffff1614611f835760006040517f73c6ac6e000000000000000000000000000000000000000000000000000000008152600401611f7a9190612b14565b60405180910390fd5b505050565b600073ffffffffffffffffffffffffffffffffffffffff168273ffffffffffffffffffffffffffffffffffffffff1603611ff957816040517f5b08ba18000000000000000000000000000000000000000000000000000000008152600401611ff09190612b14565b60405180910390fd5b80600560008573ffffffffffffffffffffffffffffffffffffffff1673ffffffffffffffffffffffffffffffffffffffff16815260200190815260200160002060008473ffffffffffffffffffffffffffffffffffffffff1673ffffffffffffffffffffffffffffffffffffffff16815260200190815260200160002060006101000a81548160ff0219169083151502179055508173ffffffffffffffffffffffffffffffffffffffff168373ffffffffffffffffffffffffffffffffffffffff167f17307eab39ab6107e8899845ad3d59bd9653f200f220920489ca2b5937696c31836040516120ea91906129a3565b60405180910390a3505050565b60008373ffffffffffffffffffffffffffffffffffffffff163b11156122a8578273ffffffffffffffffffffffffffffffffffffffff1663150b7a0261213b6118de565b8685856040518563ffffffff1660e01b815260040161215d94939291906139f4565b6020604051808303816000875af192505050801561219957506040513d601f19601f820116820180604052508101906121969190613a55565b60015b61221d573d80600081146121c9576040519150601f19603f3d011682016040523d82523d6000602084013e6121ce565b606091505b50600081510361221557836040517f64a0ae9200000000000000000000000000000000000000000000000000000000815260040161220c9190612b14565b60405180910390fd5b805181602001fd5b63150b7a0260e01b7bffffffffffffffffffffffffffffffffffffffffffffffffffffffff1916817bffffffffffffffffffffffffffffffffffffffffffffffffffffffff1916146122a657836040517f64a0ae9200000000000000000000000000000000000000000000000000000000815260040161229d9190612b14565b60405180910390fd5b505b50505050565b606060405180602001604052806000815250905090565b6060600060016122d48461261c565b01905060008167ffffffffffffffff8111156122f3576122f2612eeb565b5b6040519080825280601f01601f1916602001820160405280156123255781602001600182028036833780820191505090505b509050600082602001820190505b600115612388578080600190039150507f3031323334353637383961626364656600000000000000000000000000000000600a86061a8153600a858161237c5761237b613a82565b5b04945060008503612333575b819350505050919050565b80806123cc5750600073ffffffffffffffffffffffffffffffffffffffff168273ffffffffffffffffffffffffffffffffffffffff1614155b156125005760006123dc84611819565b9050600073ffffffffffffffffffffffffffffffffffffffff168373ffffffffffffffffffffffffffffffffffffffff161415801561244757508273ffffffffffffffffffffffffffffffffffffffff168173ffffffffffffffffffffffffffffffffffffffff1614155b801561245a57506124588184611695565b155b1561249c57826040517fa9fbf51f0000000000000000000000000000000000000000000000000000000081526004016124939190612b14565b60405180910390fd5b81156124fe57838573ffffffffffffffffffffffffffffffffffffffff168273ffffffffffffffffffffffffffffffffffffffff167f8c5be1e5ebec7d5bd14f71427d1e84f3dd0314c0f7b2291e5b200ac8c7c3b92560405160405180910390a45b505b836004600085815260200190815260200160002060006101000a81548173ffffffffffffffffffffffffffffffffffffffff021916908373ffffffffffffffffffffffffffffffffffffffff16021790555050505050565b61256383838361276f565b61261757600073ffffffffffffffffffffffffffffffffffffffff168373ffffffffffffffffffffffffffffffffffffffff16036125d857806040517f7e2732890000000000000000000000000000000000000000000000000000000081526004016125cf9190612c2a565b60405180910390fd5b81816040517f177e802f00000000000000000000000000000000000000000000000000000000815260040161260e929190613ab1565b60405180910390fd5b505050565b600080600090507a184f03e93ff9f4daa797ed6e38ed64bf6a1f010000000000000000831061267a577a184f03e93ff9f4daa797ed6e38ed64bf6a1f01000000000000000083816126705761266f613a82565b5b0492506040810190505b6d04ee2d6d415b85acef810000000083106126b7576d04ee2d6d415b85acef810000000083816126ad576126ac613a82565b5b0492506020810190505b662386f26fc1000083106126e657662386f26fc1000083816126dc576126db613a82565b5b0492506010810190505b6305f5e100831061270f576305f5e100838161270557612704613a82565b5b0492506008810190505b612710831061273457612710838161272a57612729613a82565b5b0492506004810190505b60648310612757576064838161274d5761274c613a82565b5b0492506002810190505b600a8310612766576001810190505b80915050919050565b60008073ffffffffffffffffffffffffffffffffffffffff168373ffffffffffffffffffffffffffffffffffffffff161415801561282757508273ffffffffffffffffffffffffffffffffffffffff168473ffffffffffffffffffffffffffffffffffffffff1614806127e857506127e78484611695565b5b8061282657508273ffffffffffffffffffffffffffffffffffffffff1661280e836118a1565b73ffffffffffffffffffffffffffffffffffffffff16145b5b90509392505050565b50805461283c90613383565b6000825580601f1061284e575061286d565b601f01602090049060005260206000209081019061286c91906128d2565b5b50565b6040518060c0016040528060608152602001606081526020016000815260200160608152602001600073ffffffffffffffffffffffffffffffffffffffff168152602001600073ffffffffffffffffffffffffffffffffffffffff1681525090565b5b808211156128eb5760008160009055506001016128d3565b5090565b6000604051905090565b600080fd5b600080fd5b60007fffffffff0000000000000000000000000000000000000000000000000000000082169050919050565b61293881612903565b811461294357600080fd5b50565b6000813590506129558161292f565b92915050565b600060208284031215612971576129706128f9565b5b600061297f84828501612946565b91505092915050565b60008115159050919050565b61299d81612988565b82525050565b60006020820190506129b86000830184612994565b92915050565b600081519050919050565b600082825260208201905092915050565b60005b838110156129f85780820151818401526020810190506129dd565b60008484015250505050565b6000601f19601f8301169050919050565b6000612a20826129be565b612a2a81856129c9565b9350612a3a8185602086016129da565b612a4381612a04565b840191505092915050565b60006020820190508181036000830152612a688184612a15565b905092915050565b6000819050919050565b612a8381612a70565b8114612a8e57600080fd5b50565b600081359050612aa081612a7a565b92915050565b600060208284031215612abc57612abb6128f9565b5b6000612aca84828501612a91565b91505092915050565b600073ffffffffffffffffffffffffffffffffffffffff82169050919050565b6000612afe82612ad3565b9050919050565b612b0e81612af3565b82525050565b6000602082019050612b296000830184612b05565b92915050565b612b3881612af3565b8114612b4357600080fd5b50565b600081359050612b5581612b2f565b92915050565b60008060408385031215612b7257612b716128f9565b5b6000612b8085828601612b46565b9250506020612b9185828601612a91565b9150509250929050565b600080600060608486031215612bb457612bb36128f9565b5b6000612bc286828701612b46565b9350506020612bd386828701612b46565b9250506040612be486828701612a91565b9150509250925092565b600060208284031215612c0457612c036128f9565b5b6000612c1284828501612b46565b91505092915050565b612c2481612a70565b82525050565b6000602082019050612c3f6000830184612c1b565b92915050565b600082825260208201905092915050565b6000612c61826129be565b612c6b8185612c45565b9350612c7b8185602086016129da565b612c8481612a04565b840191505092915050565b612c9881612a70565b82525050565b612ca781612af3565b82525050565b600060c0830160008301518482036000860152612cca8282612c56565b91505060208301518482036020860152612ce48282612c56565b9150506040830151612cf96040860182612c8f565b5060608301518482036060860152612d118282612c56565b9150506080830151612d266080860182612c9e565b5060a0830151612d3960a0860182612c9e565b508091505092915050565b60006020820190508181036000830152612d5e8184612cad565b905092915050565b600081519050919050565b600082825260208201905092915050565b6000819050602082019050919050565b600060c0830160008301518482036000860152612daf8282612c56565b91505060208301518482036020860152612dc98282612c56565b9150506040830151612dde6040860182612c8f565b5060608301518482036060860152612df68282612c56565b9150506080830151612e0b6080860182612c9e565b5060a0830151612e1e60a0860182612c9e565b508091505092915050565b6000612e358383612d92565b905092915050565b6000602082019050919050565b6000612e5582612d66565b612e5f8185612d71565b935083602082028501612e7185612d82565b8060005b85811015612ead5784840389528151612e8e8582612e29565b9450612e9983612e3d565b925060208a01995050600181019050612e75565b50829750879550505050505092915050565b60006020820190508181036000830152612ed98184612e4a565b905092915050565b600080fd5b600080fd5b7f4e487b7100000000000000000000000000000000000000000000000000000000600052604160045260246000fd5b612f2382612a04565b810181811067ffffffffffffffff82111715612f4257612f41612eeb565b5b80604052505050565b6000612f556128ef565b9050612f618282612f1a565b919050565b600067ffffffffffffffff821115612f8157612f80612eeb565b5b612f8a82612a04565b9050602081019050919050565b82818337600083830152505050565b6000612fb9612fb484612f66565b612f4b565b905082815260208101848484011115612fd557612fd4612ee6565b5b612fe0848285612f97565b509392505050565b600082601f830112612ffd57612ffc612ee1565b5b813561300d848260208601612fa6565b91505092915050565b600080600080600060a08688031215613032576130316128f9565b5b600086013567ffffffffffffffff8111156130505761304f6128fe565b5b61305c88828901612fe8565b955050602086013567ffffffffffffffff81111561307d5761307c6128fe565b5b61308988828901612fe8565b945050604061309a88828901612a91565b935050606086013567ffffffffffffffff8111156130bb576130ba6128fe565b5b6130c788828901612fe8565b92505060806130d888828901612b46565b9150509295509295909350565b6130ee81612988565b81146130f957600080fd5b50565b60008135905061310b816130e5565b92915050565b60008060408385031215613128576131276128f9565b5b600061313685828601612b46565b9250506020613147858286016130fc565b9150509250929050565b600067ffffffffffffffff82111561316c5761316b612eeb565b5b61317582612a04565b9050602081019050919050565b600061319561319084613151565b612f4b565b9050828152602081018484840111156131b1576131b0612ee6565b5b6131bc848285612f97565b509392505050565b600082601f8301126131d9576131d8612ee1565b5b81356131e9848260208601613182565b91505092915050565b6000806000806080858703121561320c5761320b6128f9565b5b600061321a87828801612b46565b945050602061322b87828801612b46565b935050604061323c87828801612a91565b925050606085013567ffffffffffffffff81111561325d5761325c6128fe565b5b613269878288016131c4565b91505092959194509250565b6000806000806080858703121561328f5761328e6128f9565b5b600061329d87828801612a91565b945050602085013567ffffffffffffffff8111156132be576132bd6128fe565b5b6132ca87828801612fe8565b935050604085013567ffffffffffffffff8111156132eb576132ea6128fe565b5b6132f787828801612fe8565b925050606061330887828801612b46565b91505092959194509250565b6000806040838503121561332b5761332a6128f9565b5b600061333985828601612b46565b925050602061334a85828601612b46565b9150509250929050565b7f4e487b7100000000000000000000000000000000000000000000000000000000600052602260045260246000fd5b6000600282049050600182168061339b57607f821691505b6020821081036133ae576133ad613354565b5b50919050565b60006060820190506133c96000830186612b05565b6133d66020830185612c1b565b6133e36040830184612b05565b949350505050565b7f4f6e6c7920746865206f776e65722063616e206275726e2074686973204e4654600082015250565b60006134216020836129c9565b915061342c826133eb565b602082019050919050565b6000602082019050818103600083015261345081613414565b9050919050565b7f4e465420646f6573206e6f742065786973740000000000000000000000000000600082015250565b600061348d6012836129c9565b915061349882613457565b602082019050919050565b600060208201905081810360008301526134bc81613480565b9050919050565b7f4f6e6c79207468652063757272656e74206f776e65722063616e207472616e7360008201527f6665722074686973204e46540000000000000000000000000000000000000000602082015250565b600061351f602c836129c9565b915061352a826134c3565b604082019050919050565b6000602082019050818103600083015261354e81613512565b9050919050565b7f4e487b7100000000000000000000000000000000000000000000000000000000600052601160045260246000fd5b600061358f82612a70565b915061359a83612a70565b92508282019050808211156135b2576135b1613555565b5b92915050565b60006135c382612a70565b91507fffffffffffffffffffffffffffffffffffffffffffffffffffffffffffffffff82036135f5576135f4613555565b5b600182019050919050565b7f4e487b7100000000000000000000000000000000000000000000000000000000600052603260045260246000fd5b60008190508160005260206000209050919050565b60006020601f8301049050919050565b600082821b905092915050565b6000600883026136917fffffffffffffffffffffffffffffffffffffffffffffffffffffffffffffffff82613654565b61369b8683613654565b95508019841693508086168417925050509392505050565b6000819050919050565b60006136d86136d36136ce84612a70565b6136b3565b612a70565b9050919050565b6000819050919050565b6136f2836136bd565b6137066136fe826136df565b848454613661565b825550505050565b600090565b61371b61370e565b6137268184846136e9565b505050565b5b8181101561374a5761373f600082613713565b60018101905061372c565b5050565b601f82111561378f576137608161362f565b61376984613644565b81016020851015613778578190505b61378c61378485613644565b83018261372b565b50505b505050565b600082821c905092915050565b60006137b260001984600802613794565b1980831691505092915050565b60006137cb83836137a1565b9150826002028217905092915050565b6137e4826129be565b67ffffffffffffffff8111156137fd576137fc612eeb565b5b6138078254613383565b61381282828561374e565b600060209050601f8311600181146138455760008415613833578287015190505b61383d85826137bf565b8655506138a5565b601f1984166138538661362f565b60005b8281101561387b57848901518255600182019150602085019450602081019050613856565b868310156138985784890151613894601f8916826137a1565b8355505b6001600288020188555050505b505050505050565b600081905092915050565b60006138c3826129be565b6138cd81856138ad565b93506138dd8185602086016129da565b80840191505092915050565b60006138f582856138b8565b915061390182846138b8565b91508190509392505050565b7f4f6e6c7920746865206f776e65722063616e20757064617465204e465420646560008201527f7461696c73000000000000000000000000000000000000000000000000000000602082015250565b60006139696025836129c9565b91506139748261390d565b604082019050919050565b600060208201905081810360008301526139988161395c565b9050919050565b600081519050919050565b600082825260208201905092915050565b60006139c68261399f565b6139d081856139aa565b93506139e08185602086016129da565b6139e981612a04565b840191505092915050565b6000608082019050613a096000830187612b05565b613a166020830186612b05565b613a236040830185612c1b565b8181036060830152613a3581846139bb565b905095945050505050565b600081519050613a4f8161292f565b92915050565b600060208284031215613a6b57613a6a6128f9565b5b6000613a7984828501613a40565b91505092915050565b7f4e487b7100000000000000000000000000000000000000000000000000000000600052601260045260246000fd5b6000604082019050613ac66000830185612b05565b613ad36020830184612c1b565b939250505056fea2646970667358221220890e291427461f25441fb3ce8c279290833638d8beabec97ad3b0a988bbf0aad64736f6c63430008180033",
  "linkReferences": {},
  "deployedLinkReferences": {}
}